{
  "address": "0xBD722d828eF9e5B8BBf4014eFA072976C103961e",
  "abi": [
    {
      "inputs": [],
      "stateMutability": "nonpayable",
      "type": "constructor"
    },
    {
      "inputs": [
        {
          "internalType": "address",
          "name": "target",
          "type": "address"
        }
      ],
      "name": "AddressEmptyCode",
      "type": "error"
    },
    {
      "inputs": [
        {
          "internalType": "address",
          "name": "implementation",
          "type": "address"
        }
      ],
      "name": "ERC1967InvalidImplementation",
      "type": "error"
    },
    {
      "inputs": [],
      "name": "ERC1967NonPayable",
      "type": "error"
    },
    {
      "inputs": [],
      "name": "FailedInnerCall",
      "type": "error"
    },
    {
      "inputs": [],
      "name": "InvalidInitialization",
      "type": "error"
    },
    {
      "inputs": [],
      "name": "MathOverflowedMulDiv",
      "type": "error"
    },
    {
      "inputs": [],
      "name": "NotInitializing",
      "type": "error"
    },
    {
      "inputs": [
        {
          "internalType": "address",
          "name": "owner",
          "type": "address"
        }
      ],
      "name": "OwnableInvalidOwner",
      "type": "error"
    },
    {
      "inputs": [
        {
          "internalType": "address",
          "name": "account",
          "type": "address"
        }
      ],
      "name": "OwnableUnauthorizedAccount",
      "type": "error"
    },
    {
      "inputs": [],
      "name": "UUPSUnauthorizedCallContext",
      "type": "error"
    },
    {
      "inputs": [
        {
          "internalType": "bytes32",
          "name": "slot",
          "type": "bytes32"
        }
      ],
      "name": "UUPSUnsupportedProxiableUUID",
      "type": "error"
    },
    {
      "anonymous": false,
      "inputs": [
        {
          "indexed": true,
          "internalType": "address",
          "name": "owner",
          "type": "address"
        },
        {
          "indexed": true,
          "internalType": "address",
          "name": "spender",
          "type": "address"
        },
        {
          "indexed": false,
          "internalType": "uint256",
          "name": "value",
          "type": "uint256"
        }
      ],
      "name": "Approval",
      "type": "event"
    },
    {
      "anonymous": false,
      "inputs": [
        {
          "indexed": false,
          "internalType": "uint256",
          "name": "newFee",
          "type": "uint256"
        }
      ],
      "name": "FeeChanged",
      "type": "event"
    },
    {
      "anonymous": false,
      "inputs": [
        {
          "indexed": false,
          "internalType": "uint64",
          "name": "version",
          "type": "uint64"
        }
      ],
      "name": "Initialized",
      "type": "event"
    },
    {
      "anonymous": false,
      "inputs": [
        {
          "indexed": false,
          "internalType": "address",
          "name": "oracle",
          "type": "address"
        }
      ],
      "name": "OracleAddressChanged",
      "type": "event"
    },
    {
      "anonymous": false,
      "inputs": [
        {
          "indexed": true,
          "internalType": "address",
          "name": "previousOwner",
          "type": "address"
        },
        {
          "indexed": true,
          "internalType": "address",
          "name": "newOwner",
          "type": "address"
        }
      ],
      "name": "OwnershipTransferStarted",
      "type": "event"
    },
    {
      "anonymous": false,
      "inputs": [
        {
          "indexed": true,
          "internalType": "address",
          "name": "previousOwner",
          "type": "address"
        },
        {
          "indexed": true,
          "internalType": "address",
          "name": "newOwner",
          "type": "address"
        }
      ],
      "name": "OwnershipTransferred",
      "type": "event"
    },
    {
      "anonymous": false,
      "inputs": [
        {
          "indexed": true,
          "internalType": "address",
          "name": "from",
          "type": "address"
        },
        {
          "indexed": true,
          "internalType": "address",
          "name": "to",
          "type": "address"
        },
        {
          "indexed": false,
          "internalType": "uint256",
          "name": "value",
          "type": "uint256"
        }
      ],
      "name": "Transfer",
      "type": "event"
    },
    {
      "anonymous": false,
      "inputs": [
        {
          "indexed": true,
          "internalType": "address",
          "name": "implementation",
          "type": "address"
        }
      ],
      "name": "Upgraded",
      "type": "event"
    },
    {
      "inputs": [],
      "name": "UPGRADE_INTERFACE_VERSION",
      "outputs": [
        {
          "internalType": "string",
          "name": "",
          "type": "string"
        }
      ],
      "stateMutability": "view",
      "type": "function"
    },
    {
      "inputs": [],
      "name": "acceptOwnership",
      "outputs": [],
      "stateMutability": "nonpayable",
      "type": "function"
    },
    {
      "inputs": [
        {
          "internalType": "address",
          "name": "owner",
          "type": "address"
        },
        {
          "internalType": "address",
          "name": "spender",
          "type": "address"
        }
      ],
      "name": "allowance",
      "outputs": [
        {
          "internalType": "uint256",
          "name": "",
          "type": "uint256"
        }
      ],
      "stateMutability": "view",
      "type": "function"
    },
    {
      "inputs": [
        {
          "internalType": "address",
          "name": "spender",
          "type": "address"
        },
        {
          "internalType": "uint256",
          "name": "amount",
          "type": "uint256"
        }
      ],
      "name": "approve",
      "outputs": [
        {
          "internalType": "bool",
          "name": "",
          "type": "bool"
        }
      ],
      "stateMutability": "nonpayable",
      "type": "function"
    },
    {
      "inputs": [
        {
          "internalType": "address",
          "name": "account",
          "type": "address"
        }
      ],
      "name": "balanceOf",
      "outputs": [
        {
          "internalType": "uint256",
          "name": "",
          "type": "uint256"
        }
      ],
      "stateMutability": "view",
      "type": "function"
    },
    {
      "inputs": [
        {
          "internalType": "address",
          "name": "account",
          "type": "address"
        }
      ],
      "name": "balanceOfWithFee",
      "outputs": [
        {
          "internalType": "uint256",
          "name": "",
          "type": "uint256"
        }
      ],
      "stateMutability": "view",
      "type": "function"
    },
    {
      "inputs": [
        {
          "internalType": "address",
          "name": "account",
          "type": "address"
        },
        {
          "internalType": "uint256",
          "name": "amount",
          "type": "uint256"
        }
      ],
      "name": "burn",
      "outputs": [
        {
          "internalType": "uint256",
          "name": "",
          "type": "uint256"
        }
      ],
      "stateMutability": "nonpayable",
      "type": "function"
    },
    {
      "inputs": [
        {
          "internalType": "address[]",
          "name": "accounts",
          "type": "address[]"
        }
      ],
      "name": "collectFees",
      "outputs": [],
      "stateMutability": "nonpayable",
      "type": "function"
    },
    {
      "inputs": [],
      "name": "decimals",
      "outputs": [
        {
          "internalType": "uint8",
          "name": "",
          "type": "uint8"
        }
      ],
      "stateMutability": "view",
      "type": "function"
    },
    {
      "inputs": [
        {
          "internalType": "address",
          "name": "spender",
          "type": "address"
        },
        {
          "internalType": "uint256",
          "name": "subtractedValue",
          "type": "uint256"
        }
      ],
      "name": "decreaseAllowance",
      "outputs": [
        {
          "internalType": "bool",
          "name": "",
          "type": "bool"
        }
      ],
      "stateMutability": "nonpayable",
      "type": "function"
    },
    {
      "inputs": [],
      "name": "feeChangeMinDelay",
      "outputs": [
        {
          "internalType": "uint256",
          "name": "",
          "type": "uint256"
        }
      ],
      "stateMutability": "view",
      "type": "function"
    },
    {
      "inputs": [
        {
          "internalType": "address",
          "name": "account",
          "type": "address"
        }
      ],
      "name": "feeLastPaid",
      "outputs": [
        {
          "internalType": "uint256",
          "name": "",
          "type": "uint256"
        }
      ],
      "stateMutability": "view",
      "type": "function"
    },
    {
      "inputs": [],
      "name": "feeRate",
      "outputs": [
        {
          "internalType": "uint256",
          "name": "",
          "type": "uint256"
        }
      ],
      "stateMutability": "view",
      "type": "function"
    },
    {
      "inputs": [
        {
          "internalType": "address",
          "name": "spender",
          "type": "address"
        },
        {
          "internalType": "uint256",
          "name": "addedValue",
          "type": "uint256"
        }
      ],
      "name": "increaseAllowance",
      "outputs": [
        {
          "internalType": "bool",
          "name": "",
          "type": "bool"
        }
      ],
      "stateMutability": "nonpayable",
      "type": "function"
    },
    {
      "inputs": [],
      "name": "initialize",
      "outputs": [],
      "stateMutability": "nonpayable",
      "type": "function"
    },
    {
      "inputs": [],
      "name": "lastFeeChange",
      "outputs": [
        {
          "internalType": "uint256",
          "name": "",
          "type": "uint256"
        }
      ],
      "stateMutability": "view",
      "type": "function"
    },
    {
      "inputs": [],
      "name": "maxFee",
      "outputs": [
        {
          "internalType": "uint256",
          "name": "",
          "type": "uint256"
        }
      ],
      "stateMutability": "view",
      "type": "function"
    },
    {
      "inputs": [
        {
          "internalType": "uint256",
          "name": "amount",
          "type": "uint256"
        }
      ],
      "name": "mint",
      "outputs": [],
      "stateMutability": "nonpayable",
      "type": "function"
    },
    {
      "inputs": [],
      "name": "name",
      "outputs": [
        {
          "internalType": "string",
          "name": "",
          "type": "string"
        }
      ],
      "stateMutability": "view",
      "type": "function"
    },
    {
      "inputs": [],
      "name": "oracle",
      "outputs": [
        {
          "internalType": "address",
          "name": "",
          "type": "address"
        }
      ],
      "stateMutability": "view",
      "type": "function"
    },
    {
      "inputs": [],
      "name": "owner",
      "outputs": [
        {
          "internalType": "address",
          "name": "",
          "type": "address"
        }
      ],
      "stateMutability": "view",
      "type": "function"
    },
    {
      "inputs": [],
      "name": "pendingOwner",
      "outputs": [
        {
          "internalType": "address",
          "name": "",
          "type": "address"
        }
      ],
      "stateMutability": "view",
      "type": "function"
    },
    {
      "inputs": [],
      "name": "proxiableUUID",
      "outputs": [
        {
          "internalType": "bytes32",
          "name": "",
          "type": "bytes32"
        }
      ],
      "stateMutability": "view",
      "type": "function"
    },
    {
      "inputs": [],
      "name": "renounceOwnership",
      "outputs": [],
      "stateMutability": "nonpayable",
      "type": "function"
    },
    {
      "inputs": [
        {
          "internalType": "address",
          "name": "newAddress",
          "type": "address"
        }
      ],
      "name": "setFeeCollectionAddress",
      "outputs": [],
      "stateMutability": "nonpayable",
      "type": "function"
    },
    {
      "inputs": [
        {
          "internalType": "uint256",
          "name": "newFee_",
          "type": "uint256"
        }
      ],
      "name": "setFeeRate",
      "outputs": [],
      "stateMutability": "nonpayable",
      "type": "function"
    },
    {
      "inputs": [
        {
          "internalType": "address",
          "name": "newAddress",
          "type": "address"
        }
      ],
      "name": "setMinterRole",
      "outputs": [],
      "stateMutability": "nonpayable",
      "type": "function"
    },
    {
      "inputs": [
        {
          "internalType": "address",
          "name": "oracleAddress",
          "type": "address"
        }
      ],
      "name": "setOracleAddress",
      "outputs": [
        {
          "internalType": "bool",
          "name": "",
          "type": "bool"
        }
      ],
      "stateMutability": "nonpayable",
      "type": "function"
    },
    {
      "inputs": [],
      "name": "symbol",
      "outputs": [
        {
          "internalType": "string",
          "name": "",
          "type": "string"
        }
      ],
      "stateMutability": "view",
      "type": "function"
    },
    {
      "inputs": [],
      "name": "totalSupply",
      "outputs": [
        {
          "internalType": "uint256",
          "name": "",
          "type": "uint256"
        }
      ],
      "stateMutability": "view",
      "type": "function"
    },
    {
      "inputs": [
        {
          "internalType": "address",
          "name": "to",
          "type": "address"
        },
        {
          "internalType": "uint256",
          "name": "amount",
          "type": "uint256"
        }
      ],
      "name": "transfer",
      "outputs": [
        {
          "internalType": "bool",
          "name": "",
          "type": "bool"
        }
      ],
      "stateMutability": "nonpayable",
      "type": "function"
    },
    {
      "inputs": [
        {
          "internalType": "address",
          "name": "to",
          "type": "address"
        }
      ],
      "name": "transferAll",
      "outputs": [
        {
          "internalType": "bool",
          "name": "",
          "type": "bool"
        }
      ],
      "stateMutability": "nonpayable",
      "type": "function"
    },
    {
      "inputs": [
        {
          "internalType": "address",
          "name": "from",
          "type": "address"
        },
        {
          "internalType": "address",
          "name": "to",
          "type": "address"
        },
        {
          "internalType": "uint256",
          "name": "amount",
          "type": "uint256"
        }
      ],
      "name": "transferFrom",
      "outputs": [
        {
          "internalType": "bool",
          "name": "",
          "type": "bool"
        }
      ],
      "stateMutability": "nonpayable",
      "type": "function"
    },
    {
      "inputs": [
        {
          "internalType": "address",
          "name": "newOwner",
          "type": "address"
        }
      ],
      "name": "transferOwnership",
      "outputs": [],
      "stateMutability": "nonpayable",
      "type": "function"
    },
    {
      "inputs": [
        {
          "internalType": "address",
          "name": "newImplementation",
          "type": "address"
        },
        {
          "internalType": "bytes",
          "name": "data",
          "type": "bytes"
        }
      ],
      "name": "upgradeToAndCall",
      "outputs": [],
      "stateMutability": "payable",
      "type": "function"
    }
  ],
  "transactionHash": "0x54a5fcba268a480ae29b3fb5a808baeea24306d8ea7d036fc186e915a8586eb3",
  "args": [],
  "numDeployments": 1,
  "solcInputHash": "9db48fd82ce2fd05882573ee9e064552",
  "bytecode": "0x60a0604052306080523480156200001557600080fd5b506200002062000026565b620000da565b7ff0c57e16840df040f15088dc2f81fe391c3923bec73e23a9662efc9c229c6a00805468010000000000000000900460ff1615620000775760405163f92ee8a960e01b815260040160405180910390fd5b80546001600160401b0390811614620000d75780546001600160401b0319166001600160401b0390811782556040519081527fc7f505b2f371ae2175ee4913f4499e1f2633a7b5936321eed1cdaeb6115181d29060200160405180910390a15b50565b60805161331a6200010460003960008181611f6201528181611f8b015261213b015261331a6000f3fe6080604052600436106102345760003560e01c806379ba509711610138578063a3a7e7f3116100b0578063b8cc76fb1161007f578063dd62ed3e11610064578063dd62ed3e1461075b578063e30c3978146107c0578063f2fde38b146107d557600080fd5b8063b8cc76fb146106e6578063ceee577e1461070657600080fd5b8063a3a7e7f31461063d578063a457c2d71461065d578063a9059cbb1461067d578063ad3cb1cc1461069d57600080fd5b8063945d122911610107578063978bbdb9116100ec578063978bbdb9146105c95780639dc29fac146105fd578063a0712d681461061d57600080fd5b8063945d12291461059457806395d89b41146105b457600080fd5b806379ba5097146104ff5780637dc0d1d0146105145780638129fc1c1461056a5780638da5cb5b1461057f57600080fd5b806345596e2e116101cb57806352d1902d1161019a578063695056881161017f578063695056881461049657806370a08231146104ca578063715018a6146104ea57600080fd5b806352d1902d1461046157806358c0f7291461047657600080fd5b806345596e2e146103b75780634bcc1aef146103d95780634c69c00f1461042e5780634f1ef2861461044e57600080fd5b806318160ddd1161020757806318160ddd1461030257806323b872dd14610336578063313ce56714610356578063395093511461039757600080fd5b806301f59d161461023957806306fdde031461027c578063095ea7b31461029e578063142a1515146102ce575b600080fd5b34801561024557600080fd5b507f84f93370f668d60ff19344e905d5e5ea70bb94f6b70992c58975d1579ea0540d545b6040519081526020015b60405180910390f35b34801561028857600080fd5b506102916107f5565b6040516102739190612d77565b3480156102aa57600080fd5b506102be6102b9366004612dc1565b6108ca565b6040519015158152602001610273565b3480156102da57600080fd5b507f84f93370f668d60ff19344e905d5e5ea70bb94f6b70992c58975d1579ea0540e54610269565b34801561030e57600080fd5b507f84f93370f668d60ff19344e905d5e5ea70bb94f6b70992c58975d1579ea0540254610269565b34801561034257600080fd5b506102be610351366004612deb565b6108e4565b34801561036257600080fd5b507f84f93370f668d60ff19344e905d5e5ea70bb94f6b70992c58975d1579ea054055460405160ff9091168152602001610273565b3480156103a357600080fd5b506102be6103b2366004612dc1565b61090a565b3480156103c357600080fd5b506103d76103d2366004612e27565b610968565b005b3480156103e557600080fd5b506102696103f4366004612e40565b6001600160a01b031660009081527f84f93370f668d60ff19344e905d5e5ea70bb94f6b70992c58975d1579ea05400602052604090205490565b34801561043a57600080fd5b506102be610449366004612e40565b610b29565b6103d761045c366004612e71565b610c6c565b34801561046d57600080fd5b50610269610c8b565b34801561048257600080fd5b506103d7610491366004612f33565b610cba565b3480156104a257600080fd5b507f84f93370f668d60ff19344e905d5e5ea70bb94f6b70992c58975d1579ea0540c54610269565b3480156104d657600080fd5b506102696104e5366004612e40565b610d0c565b3480156104f657600080fd5b506103d7610d92565b34801561050b57600080fd5b506103d7610da6565b34801561052057600080fd5b507f84f93370f668d60ff19344e905d5e5ea70bb94f6b70992c58975d1579ea054055461010090046001600160a01b03165b6040516001600160a01b039091168152602001610273565b34801561057657600080fd5b506103d7610e07565b34801561058b57600080fd5b50610552610fd6565b3480156105a057600080fd5b506103d76105af366004612e40565b61100b565b3480156105c057600080fd5b50610291611118565b3480156105d557600080fd5b507f84f93370f668d60ff19344e905d5e5ea70bb94f6b70992c58975d1579ea0540a54610269565b34801561060957600080fd5b50610269610618366004612dc1565b611169565b34801561062957600080fd5b506103d7610638366004612e27565b611350565b34801561064957600080fd5b506102be610658366004612e40565b6115aa565b34801561066957600080fd5b506102be610678366004612dc1565b6115ce565b34801561068957600080fd5b506102be610698366004612dc1565b6116a2565b3480156106a957600080fd5b506102916040518060400160405280600581526020017f352e302e3000000000000000000000000000000000000000000000000000000081525081565b3480156106f257600080fd5b506103d7610701366004612e40565b6116b0565b34801561071257600080fd5b50610269610721366004612e40565b6001600160a01b031660009081527f84f93370f668d60ff19344e905d5e5ea70bb94f6b70992c58975d1579ea05406602052604090205490565b34801561076757600080fd5b50610269610776366004612fa8565b6001600160a01b0391821660009081527f84f93370f668d60ff19344e905d5e5ea70bb94f6b70992c58975d1579ea054016020908152604080832093909416825291909152205490565b3480156107cc57600080fd5b506105526117bd565b3480156107e157600080fd5b506103d76107f0366004612e40565b6117e6565b7f84f93370f668d60ff19344e905d5e5ea70bb94f6b70992c58975d1579ea0540380546060917f84f93370f668d60ff19344e905d5e5ea70bb94f6b70992c58975d1579ea054009161084690612fdb565b80601f016020809104026020016040519081016040528092919081815260200182805461087290612fdb565b80156108bf5780601f10610894576101008083540402835291602001916108bf565b820191906000526020600020905b8154815290600101906020018083116108a257829003601f168201915b505050505091505090565b6000336108d8818585611878565b60019150505b92915050565b6000336108f2858285611a15565b6108fd858585611ac6565b60019150505b9392505050565b3360008181527f84f93370f668d60ff19344e905d5e5ea70bb94f6b70992c58975d1579ea05401602090815260408083206001600160a01b03871684529091528120549091906108d8908290869061096390879061302b565b611878565b610970611e2f565b7f84f93370f668d60ff19344e905d5e5ea70bb94f6b70992c58975d1579ea0540d547f84f93370f668d60ff19344e905d5e5ea70bb94f6b70992c58975d1579ea0540090821115610a2e5760405162461bcd60e51b815260206004820152602e60248201527f455243323057697468466565733a206665652063616e6e6f74206265206d6f7260448201527f65207468616e206d61782066656500000000000000000000000000000000000060648201526084015b60405180910390fd5b600e810154600c820154610a42904261303e565b11610ab55760405162461bcd60e51b815260206004820152602a60248201527f455243323057697468466565733a20666565206368616e67652064656c61792060448201527f6e6f7420706173736564000000000000000000000000000000000000000000006064820152608401610a25565b42600c820155600a8082018390556005820154610ae891610ad99160ff1690613135565b6301e1338083600a0154611e7a565b600b820155600a8101546040519081527f6bbc57480a46553fa4d156ce702beef5f3ad66303b0ed1a5d4cb44966c6584c39060200160405180910390a15050565b6000610b33611e2f565b6001600160a01b038216610baf5760405162461bcd60e51b815260206004820152602c60248201527f455243323057697468466565733a206f7261636c65206164647265737320636160448201527f6e6e6f74206265207a65726f00000000000000000000000000000000000000006064820152608401610a25565b7f84f93370f668d60ff19344e905d5e5ea70bb94f6b70992c58975d1579ea0540580546001600160a01b03841661010081027fffffffffffffffffffffff0000000000000000000000000000000000000000ff9092169190911790915560408051918252517f84f93370f668d60ff19344e905d5e5ea70bb94f6b70992c58975d1579ea05400917fe420b96152542f57ce3d2d26d939a3c2860a82361801ad0a970a3badc32d538e919081900360200190a160019150505b919050565b610c74611f57565b610c7d82612027565b610c87828261202f565b5050565b6000610c95612130565b507f360894a13ba1a3210667c828492db98dca3e2076cc3735a920a3ca505d382bbc90565b60005b81811015610d0757610cf4838383818110610cda57610cda613144565b9050602002016020810190610cef9190612e40565b612192565b5080610cff8161315a565b915050610cbd565b505050565b60007f84f93370f668d60ff19344e905d5e5ea70bb94f6b70992c58975d1579ea0540081610d3984612290565b6001600160a01b038516600090815260208490526040902054909150811115610d66575060009392505050565b6001600160a01b038416600090815260208390526040902054610d8a90829061303e565b949350505050565b610d9a611e2f565b610da460006123c6565b565b3380610db06117bd565b6001600160a01b031614610dfb576040517f118cdaa70000000000000000000000000000000000000000000000000000000081526001600160a01b0382166004820152602401610a25565b610e04816123c6565b50565b7ff0c57e16840df040f15088dc2f81fe391c3923bec73e23a9662efc9c229c6a00805468010000000000000000810460ff16159067ffffffffffffffff16600081158015610e525750825b905060008267ffffffffffffffff166001148015610e6f5750303b155b905081158015610e7d575080155b15610eb4576040517ff92ee8a900000000000000000000000000000000000000000000000000000000815260040160405180910390fd5b84547fffffffffffffffffffffffffffffffffffffffffffffffff00000000000000001660011785558315610eff57845468ff00000000000000001916680100000000000000001785555b610f84336040518060400160405280601381526020017f44656e6172696f2053696c76657220436f696e000000000000000000000000008152506040518060400160405280600381526020017f44534300000000000000000000000000000000000000000000000000000000008152506008620f4240624c4b4062f099c0333361240b565b8315610fcf57845468ff000000000000000019168555604051600181527fc7f505b2f371ae2175ee4913f4499e1f2633a7b5936321eed1cdaeb6115181d29060200160405180910390a15b5050505050565b6000807f9016d09d72d40fdae2fd8ceac6b6234c7706214fd39c1cd1e609a0528c1993005b546001600160a01b031692915050565b611013611e2f565b6001600160a01b03811661108f5760405162461bcd60e51b815260206004820152603060248201527f455243323057697468466565733a20636f6c6c656374696f6e2061646472657360448201527f732063616e6e6f74206265207a65726f000000000000000000000000000000006064820152608401610a25565b7f84f93370f668d60ff19344e905d5e5ea70bb94f6b70992c58975d1579ea05409547f84f93370f668d60ff19344e905d5e5ea70bb94f6b70992c58975d1579ea05400906110e5906001600160a01b031661242f565b60098101805473ffffffffffffffffffffffffffffffffffffffff19166001600160a01b038416179055610c87826124a3565b7f84f93370f668d60ff19344e905d5e5ea70bb94f6b70992c58975d1579ea0540480546060917f84f93370f668d60ff19344e905d5e5ea70bb94f6b70992c58975d1579ea054009161084690612fdb565b7f84f93370f668d60ff19344e905d5e5ea70bb94f6b70992c58975d1579ea05409546000907f84f93370f668d60ff19344e905d5e5ea70bb94f6b70992c58975d1579ea05400906001600160a01b0316331461122d5760405162461bcd60e51b815260206004820152603160248201527f455243323057697468466565733a206f6e6c79206d696e7465722063616e206360448201527f616c6c20746869732066756e6374696f6e0000000000000000000000000000006064820152608401610a25565b6001600160a01b0384166112a95760405162461bcd60e51b815260206004820152602760248201527f45524332303a2063616e2774206275726e2066726f6d20746865207a65726f2060448201527f61646472657373000000000000000000000000000000000000000000000000006064820152608401610a25565b7f84f93370f668d60ff19344e905d5e5ea70bb94f6b70992c58975d1579ea05400336001600160a01b03861681146112e6576112e6868287611a15565b60006112f187612192565b905060008111801561131a57506001600160a01b03871660009081526020849052604090205486115b1561133b576001600160a01b03871660009081526020849052604090205495505b61134587876124ee565b509395945050505050565b7f84f93370f668d60ff19344e905d5e5ea70bb94f6b70992c58975d1579ea05409547f84f93370f668d60ff19344e905d5e5ea70bb94f6b70992c58975d1579ea05400906001600160a01b031633146114115760405162461bcd60e51b815260206004820152603160248201527f455243323057697468466565733a206f6e6c79206d696e7465722063616e206360448201527f616c6c20746869732066756e6374696f6e0000000000000000000000000000006064820152608401610a25565b7f84f93370f668d60ff19344e905d5e5ea70bb94f6b70992c58975d1579ea05405547f84f93370f668d60ff19344e905d5e5ea70bb94f6b70992c58975d1579ea054009061010090046001600160a01b0316156115925760008160050160019054906101000a90046001600160a01b03166001600160a01b031663d2c469326040518163ffffffff1660e01b8152600401602060405180830381865afa1580156114bf573d6000803e3d6000fd5b505050506040513d601f19601f820116820180604052508101906114e39190613174565b90508160020154846114f5919061302b565b8110156115905760405162461bcd60e51b815260206004820152604360248201527f455243323057697468466565733a206e657720746f74616c20737570706c792060448201527f616d6f756e7420776f756c642065786365656420726573657276652062616c6160648201527f6e63650000000000000000000000000000000000000000000000000000000000608482015260a401610a25565b505b6009810154610d07906001600160a01b031684612613565b600033816115b782610d0c565b90506115c4828583611ac6565b5060019392505050565b3360008181527f84f93370f668d60ff19344e905d5e5ea70bb94f6b70992c58975d1579ea05401602090815260408083206001600160a01b03871684529091528120549091908381101561168a5760405162461bcd60e51b815260206004820152602560248201527f45524332303a2064656372656173656420616c6c6f77616e63652062656c6f7760448201527f207a65726f0000000000000000000000000000000000000000000000000000006064820152608401610a25565b6116978286868403611878565b506001949350505050565b6000336108d8818585611ac6565b6116b8611e2f565b6001600160a01b0381166117345760405162461bcd60e51b815260206004820152603060248201527f455243323057697468466565733a20636f6c6c656374696f6e2061646472657360448201527f732063616e6e6f74206265207a65726f000000000000000000000000000000006064820152608401610a25565b7f84f93370f668d60ff19344e905d5e5ea70bb94f6b70992c58975d1579ea05408547f84f93370f668d60ff19344e905d5e5ea70bb94f6b70992c58975d1579ea054009061178a906001600160a01b031661242f565b60088101805473ffffffffffffffffffffffffffffffffffffffff19166001600160a01b038416179055610c87826124a3565b6000807f237e158222e3e6968b72b9db0d8043aacf074ad9f650f0d1606b4d82ee432c00610ffb565b6117ee611e2f565b7f237e158222e3e6968b72b9db0d8043aacf074ad9f650f0d1606b4d82ee432c00805473ffffffffffffffffffffffffffffffffffffffff19166001600160a01b038316908117825561183f610fd6565b6001600160a01b03167f38d16b8cac22d99fc7c124b9cd0de2d3fa1faef420bfe791d8c362d765e2270060405160405180910390a35050565b6001600160a01b0383166118f35760405162461bcd60e51b8152602060048201526024808201527f45524332303a20617070726f76652066726f6d20746865207a65726f2061646460448201527f72657373000000000000000000000000000000000000000000000000000000006064820152608401610a25565b6001600160a01b03821661196f5760405162461bcd60e51b815260206004820152602260248201527f45524332303a20617070726f766520746f20746865207a65726f20616464726560448201527f73730000000000000000000000000000000000000000000000000000000000006064820152608401610a25565b6001600160a01b0383811660008181527f84f93370f668d60ff19344e905d5e5ea70bb94f6b70992c58975d1579ea05401602090815260408083209487168084529482529182902085905590518481527f84f93370f668d60ff19344e905d5e5ea70bb94f6b70992c58975d1579ea054009392917f8c5be1e5ebec7d5bd14f71427d1e84f3dd0314c0f7b2291e5b200ac8c7c3b92591015b60405180910390a350505050565b6001600160a01b0383811660009081527f84f93370f668d60ff19344e905d5e5ea70bb94f6b70992c58975d1579ea0540160209081526040808320938616835292905220546000198114611ac05781811015611ab35760405162461bcd60e51b815260206004820152601d60248201527f45524332303a20696e73756666696369656e7420616c6c6f77616e63650000006044820152606401610a25565b611ac08484848403611878565b50505050565b6001600160a01b038316611b425760405162461bcd60e51b815260206004820152602560248201527f45524332303a207472616e736665722066726f6d20746865207a65726f20616460448201527f64726573730000000000000000000000000000000000000000000000000000006064820152608401610a25565b6001600160a01b038216611bbe5760405162461bcd60e51b815260206004820152602360248201527f45524332303a207472616e7366657220746f20746865207a65726f206164647260448201527f65737300000000000000000000000000000000000000000000000000000000006064820152608401610a25565b60008111611c345760405162461bcd60e51b815260206004820152602d60248201527f45524332303a207472616e7366657220616d6f756e74206d757374206265206760448201527f726561746572207468616e2030000000000000000000000000000000000000006064820152608401610a25565b816001600160a01b0316836001600160a01b031603611cbb5760405162461bcd60e51b815260206004820152602360248201527f45524332303a2073656c66207472616e73666572206973206e6f7420616c6c6f60448201527f77656400000000000000000000000000000000000000000000000000000000006064820152608401610a25565b7f84f93370f668d60ff19344e905d5e5ea70bb94f6b70992c58975d1579ea05400611ce584612192565b506001600160a01b038416600090815260208290526040902054821115611d745760405162461bcd60e51b815260206004820152602660248201527f45524332303a207472616e7366657220616d6f756e742065786365656473206260448201527f616c616e636500000000000000000000000000000000000000000000000000006064820152608401610a25565b6001600160a01b038416600090815260208290526040902054611d9890839061303e565b6001600160a01b038516600090815260208390526040902055611dba83612192565b506001600160a01b03831660009081526020829052604081208054849290611de390849061302b565b92505081905550826001600160a01b0316846001600160a01b03167fddf252ad1be2c89b69c2b068fc378daa952ba7f163c4a11628f55a4df523b3ef84604051611a0791815260200190565b33611e38610fd6565b6001600160a01b031614610da4576040517f118cdaa7000000000000000000000000000000000000000000000000000000008152336004820152602401610a25565b6000838302816000198587098281108382030391505080600003611eb157838281611ea757611ea761318d565b0492505050610903565b808411611eea576040517f227bc15300000000000000000000000000000000000000000000000000000000815260040160405180910390fd5b6000848688096000868103871696879004966002600389028118808a02820302808a02820302808a02820302808a02820302808a02820302808a02909103029181900381900460010186841190950394909402919094039290920491909117919091029150509392505050565b306001600160a01b037f0000000000000000000000000000000000000000000000000000000000000000161480611ff057507f00000000000000000000000000000000000000000000000000000000000000006001600160a01b0316611fe47f360894a13ba1a3210667c828492db98dca3e2076cc3735a920a3ca505d382bbc546001600160a01b031690565b6001600160a01b031614155b15610da4576040517fe07c8dba00000000000000000000000000000000000000000000000000000000815260040160405180910390fd5b610e04611e2f565b816001600160a01b03166352d1902d6040518163ffffffff1660e01b8152600401602060405180830381865afa925050508015612089575060408051601f3d908101601f1916820190925261208691810190613174565b60015b6120ca576040517f4c9c8ce30000000000000000000000000000000000000000000000000000000081526001600160a01b0383166004820152602401610a25565b7f360894a13ba1a3210667c828492db98dca3e2076cc3735a920a3ca505d382bbc8114612126576040517faa1d49a400000000000000000000000000000000000000000000000000000000815260048101829052602401610a25565b610d0783836126e0565b306001600160a01b037f00000000000000000000000000000000000000000000000000000000000000001614610da4576040517fe07c8dba00000000000000000000000000000000000000000000000000000000815260040160405180910390fd5b60007f84f93370f668d60ff19344e905d5e5ea70bb94f6b70992c58975d1579ea05400816121bf84612290565b9050801561226d576001600160a01b038416600090815260208390526040812080548392906121ef90849061303e565b909155505060088201546001600160a01b03166000908152602083905260408120805483929061222090849061302b565b909155505060088201546040518281526001600160a01b03918216918616907fddf252ad1be2c89b69c2b068fc378daa952ba7f163c4a11628f55a4df523b3ef9060200160405180910390a35b6001600160a01b0390931660009081526006909101602052604090204290555090565b6001600160a01b03811660009081527f84f93370f668d60ff19344e905d5e5ea70bb94f6b70992c58975d1579ea054006020819052604082205415806122f057506001600160a01b038316600090815260078201602052604090205460ff165b156122fe5750600092915050565b600c8101546001600160a01b038416600090815260068301602052604081205490911061232f5781600c015461234b565b6001600160a01b03841660009081526006830160205260409020545b90506000612359824261303e565b905082600b015481106123875750506001600160a01b03909216600090815260209290925250604090205490565b6123bd83600a01548261239a91906131a3565b6001600160a01b038716600090815260208690526040902054600f860154611e7a565b95945050505050565b7f237e158222e3e6968b72b9db0d8043aacf074ad9f650f0d1606b4d82ee432c00805473ffffffffffffffffffffffffffffffffffffffff19168155610c8782612736565b6124136127b4565b61242489898989898989898961281b565b505050505050505050565b612437611e2f565b6001600160a01b031660009081527f84f93370f668d60ff19344e905d5e5ea70bb94f6b70992c58975d1579ea0540760209081526040808320805460ff191690557f84f93370f668d60ff19344e905d5e5ea70bb94f6b70992c58975d1579ea054069091529020429055565b6124ab611e2f565b6001600160a01b031660009081527f84f93370f668d60ff19344e905d5e5ea70bb94f6b70992c58975d1579ea0540760205260409020805460ff19166001179055565b6001600160a01b03821660009081527f84f93370f668d60ff19344e905d5e5ea70bb94f6b70992c58975d1579ea0540060208190526040909120548281101561259f5760405162461bcd60e51b815260206004820152602260248201527f45524332303a206275726e20616d6f756e7420657863656564732062616c616e60448201527f63650000000000000000000000000000000000000000000000000000000000006064820152608401610a25565b6001600160a01b038416600090815260208390526040812084830390556002830180548592906125d090849061303e565b90915550506040518381526000906001600160a01b038616907fddf252ad1be2c89b69c2b068fc378daa952ba7f163c4a11628f55a4df523b3ef90602001611a07565b7f84f93370f668d60ff19344e905d5e5ea70bb94f6b70992c58975d1579ea0540280547f84f93370f668d60ff19344e905d5e5ea70bb94f6b70992c58975d1579ea0540091839160009061266890849061302b565b90915550506001600160a01b0383166000908152602082905260408120805484929061269590849061302b565b90915550506040518281526001600160a01b038416906000907fddf252ad1be2c89b69c2b068fc378daa952ba7f163c4a11628f55a4df523b3ef9060200160405180910390a3505050565b6126e982612afe565b6040516001600160a01b038316907fbc7cd75a20ee27fd9adebab32041f755214dbc6bffa90cc0225b39da2e5c2d3b90600090a280511561272e57610d078282612b9b565b610c87612c08565b7f9016d09d72d40fdae2fd8ceac6b6234c7706214fd39c1cd1e609a0528c199300805473ffffffffffffffffffffffffffffffffffffffff1981166001600160a01b03848116918217845560405192169182907f8be0079c531659141344cd1fd0a4f28419497f9722a3daafe3b4186f6b6457e090600090a3505050565b7ff0c57e16840df040f15088dc2f81fe391c3923bec73e23a9662efc9c229c6a005468010000000000000000900460ff16610da4576040517fd7e6bcf800000000000000000000000000000000000000000000000000000000815260040160405180910390fd5b6128236127b4565b61282c89612c40565b7f84f93370f668d60ff19344e905d5e5ea70bb94f6b70992c58975d1579ea0540061285887600a613135565b8511156128a75760405162461bcd60e51b815260206004820152601f60248201527f455243323057697468466565733a206d61782066656520746f6f2068696768006044820152606401610a25565b8486111561291d5760405162461bcd60e51b815260206004820152602e60248201527f455243323057697468466565733a206665652063616e6e6f74206265206d6f7260448201527f65207468616e206d6178206665650000000000000000000000000000000000006064820152608401610a25565b6001600160a01b03831661299b576040805162461bcd60e51b81526020600482015260248101919091527f455243323057697468466565733a2066656520636f6c6c656374696f6e20616460448201527f64726573732063616e6e6f7420626520746865207a65726f20616464726573736064820152608401610a25565b6001600160a01b038216612a175760405162461bcd60e51b815260206004820152603860248201527f455243323057697468466565733a206d696e746572206164647265737320636160448201527f6e6e6f7420626520746865207a65726f206164647265737300000000000000006064820152608401610a25565b60038101612a258a82613208565b5060048101612a348982613208565b5060058101805460ff191660ff8916179055600a808201879055612a6890612a5d908990613135565b6301e1338088611e7a565b600b82015542600c820155612a7e87600a613135565b612a8c906301e133806131a3565b600f820155600d8101859055600e81018490556008810180546001600160a01b0380861673ffffffffffffffffffffffffffffffffffffffff199283161790925560098301805492851692909116919091179055612ae9836124a3565b612af2826124a3565b50505050505050505050565b806001600160a01b03163b600003612b4d576040517f4c9c8ce30000000000000000000000000000000000000000000000000000000081526001600160a01b0382166004820152602401610a25565b7f360894a13ba1a3210667c828492db98dca3e2076cc3735a920a3ca505d382bbc805473ffffffffffffffffffffffffffffffffffffffff19166001600160a01b0392909216919091179055565b6060600080846001600160a01b031684604051612bb891906132c8565b600060405180830381855af49150503d8060008114612bf3576040519150601f19603f3d011682016040523d82523d6000602084013e612bf8565b606091505b50915091506123bd858383612c51565b3415610da4576040517fb398979f00000000000000000000000000000000000000000000000000000000815260040160405180910390fd5b612c486127b4565b610e0481612cc6565b606082612c6657612c6182612d11565b610903565b8151158015612c7d57506001600160a01b0384163b155b15612cbf576040517f9996b3150000000000000000000000000000000000000000000000000000000081526001600160a01b0385166004820152602401610a25565b5080610903565b612cce6127b4565b6001600160a01b038116610dfb576040517f1e4fbdf700000000000000000000000000000000000000000000000000000000815260006004820152602401610a25565b805115612d215780518082602001fd5b6040517f1425ea4200000000000000000000000000000000000000000000000000000000815260040160405180910390fd5b60005b83811015612d6e578181015183820152602001612d56565b50506000910152565b6020815260008251806020840152612d96816040850160208701612d53565b601f01601f19169190910160400192915050565b80356001600160a01b0381168114610c6757600080fd5b60008060408385031215612dd457600080fd5b612ddd83612daa565b946020939093013593505050565b600080600060608486031215612e0057600080fd5b612e0984612daa565b9250612e1760208501612daa565b9150604084013590509250925092565b600060208284031215612e3957600080fd5b5035919050565b600060208284031215612e5257600080fd5b61090382612daa565b634e487b7160e01b600052604160045260246000fd5b60008060408385031215612e8457600080fd5b612e8d83612daa565b9150602083013567ffffffffffffffff80821115612eaa57600080fd5b818501915085601f830112612ebe57600080fd5b813581811115612ed057612ed0612e5b565b604051601f8201601f19908116603f01168101908382118183101715612ef857612ef8612e5b565b81604052828152886020848701011115612f1157600080fd5b8260208601602083013760006020848301015280955050505050509250929050565b60008060208385031215612f4657600080fd5b823567ffffffffffffffff80821115612f5e57600080fd5b818501915085601f830112612f7257600080fd5b813581811115612f8157600080fd5b8660208260051b8501011115612f9657600080fd5b60209290920196919550909350505050565b60008060408385031215612fbb57600080fd5b612fc483612daa565b9150612fd260208401612daa565b90509250929050565b600181811c90821680612fef57607f821691505b60208210810361300f57634e487b7160e01b600052602260045260246000fd5b50919050565b634e487b7160e01b600052601160045260246000fd5b808201808211156108de576108de613015565b818103818111156108de576108de613015565b600181815b8085111561308c57816000190482111561307257613072613015565b8085161561307f57918102915b93841c9390800290613056565b509250929050565b6000826130a3575060016108de565b816130b0575060006108de565b81600181146130c657600281146130d0576130ec565b60019150506108de565b60ff8411156130e1576130e1613015565b50506001821b6108de565b5060208310610133831016604e8410600b841016171561310f575081810a6108de565b6131198383613051565b806000190482111561312d5761312d613015565b029392505050565b600061090360ff841683613094565b634e487b7160e01b600052603260045260246000fd5b6000600019820361316d5761316d613015565b5060010190565b60006020828403121561318657600080fd5b5051919050565b634e487b7160e01b600052601260045260246000fd5b80820281158282048414176108de576108de613015565b601f821115610d0757600081815260208120601f850160051c810160208610156131e15750805b601f850160051c820191505b81811015613200578281556001016131ed565b505050505050565b815167ffffffffffffffff81111561322257613222612e5b565b613236816132308454612fdb565b846131ba565b602080601f83116001811461326b57600084156132535750858301515b600019600386901b1c1916600185901b178555613200565b600085815260208120601f198616915b8281101561329a5788860151825594840194600190910190840161327b565b50858210156132b85787850151600019600388901b60f8161c191681555b5050505050600190811b01905550565b600082516132da818460208701612d53565b919091019291505056fea264697066735822122089ff4583075c12036b1c7e2f133d141e5e86fbf86c324b824e3e4a6eba7ac20864736f6c63430008140033",
  "devdoc": {
    "errors": {
      "AddressEmptyCode(address)": [
        {
          "details": "There's no code at `target` (it is not a contract)."
        }
      ],
      "ERC1967InvalidImplementation(address)": [
        {
          "details": "The `implementation` of the proxy is invalid."
        }
      ],
      "ERC1967NonPayable()": [
        {
          "details": "An upgrade function sees `msg.value > 0` that may be lost."
        }
      ],
      "FailedInnerCall()": [
        {
          "details": "A call to an address target failed. The target may have reverted."
        }
      ],
      "InvalidInitialization()": [
        {
          "details": "The contract is already initialized."
        }
      ],
      "MathOverflowedMulDiv()": [
        {
          "details": "Muldiv operation overflow."
        }
      ],
      "NotInitializing()": [
        {
          "details": "The contract is not initializing."
        }
      ],
      "OwnableInvalidOwner(address)": [
        {
          "details": "The owner is not a valid owner account. (eg. `address(0)`)"
        }
      ],
      "OwnableUnauthorizedAccount(address)": [
        {
          "details": "The caller account is not authorized to perform an operation."
        }
      ],
      "UUPSUnauthorizedCallContext()": [
        {
          "details": "The call is from an unauthorized context."
        }
      ],
      "UUPSUnsupportedProxiableUUID(bytes32)": [
        {
          "details": "The storage `slot` is unsupported as a UUID."
        }
      ]
    },
    "events": {
      "Approval(address,address,uint256)": {
        "details": "Emitted when the allowance of a `spender` for an `owner` is set by a call to {approve}. `value` is the new allowance."
      },
      "Initialized(uint64)": {
        "details": "Triggered when the contract has been initialized or reinitialized."
      },
      "Transfer(address,address,uint256)": {
        "details": "Emitted when `value` tokens are moved from one account (`from`) to another (`to`). Note that `value` may be zero."
      },
      "Upgraded(address)": {
        "details": "Emitted when the implementation is upgraded."
      }
    },
    "kind": "dev",
    "methods": {
      "acceptOwnership()": {
        "details": "The new owner accepts the ownership transfer."
      },
      "allowance(address,address)": {
        "details": "See {IERC20-allowance}."
      },
      "approve(address,uint256)": {
        "details": "See {IERC20-approve}. NOTE: If `amount` is the maximum `uint256`, the allowance is not updated on `transferFrom`. This is semantically equivalent to an infinite approval. Requirements: - `spender` cannot be the zero address."
      },
      "burn(address,uint256)": {
        "details": "only the minter can burn tokens, with the approval of the owner this is used in the process of redeeming tokens for real-world assets if the owner has not enough balance to burn + pay fees, the fee will be paid from the burn amount",
        "params": {
          "account": "the account to burn tokens from",
          "amount": "the amount of tokens to burn"
        }
      },
      "constructor": {
        "custom:oz-upgrades-unsafe-allow": "constructor"
      },
      "decimals()": {
        "details": "Returns the decimals places of the token."
      },
      "decreaseAllowance(address,uint256)": {
        "details": "Atomically decreases the allowance granted to `spender` by the caller. This is an alternative to {approve} that can be used as a mitigation for problems described in {IERC20-approve}. Emits an {Approval} event indicating the updated allowance. Requirements: - `spender` cannot be the zero address. - `spender` must have allowance for the caller of at least `subtractedValue`."
      },
      "feeLastPaid(address)": {
        "details": "returns 0 if the account has never had a fee deducted -> never held tokens"
      },
      "increaseAllowance(address,uint256)": {
        "details": "Atomically increases the allowance granted to `spender` by the caller. This is an alternative to {approve} that can be used as a mitigation for problems described in {IERC20-approve}. Emits an {Approval} event indicating the updated allowance. Requirements: - `spender` cannot be the zero address."
      },
      "mint(uint256)": {
        "details": "only the minter can mint new tokens"
      },
      "name()": {
        "details": "Returns the name of the token."
      },
      "owner()": {
        "details": "Returns the address of the current owner."
      },
      "pendingOwner()": {
        "details": "Returns the address of the pending owner."
      },
      "proxiableUUID()": {
        "details": "Implementation of the ERC1822 {proxiableUUID} function. This returns the storage slot used by the implementation. It is used to validate the implementation's compatibility when performing an upgrade. IMPORTANT: A proxy pointing at a proxiable contract should not be considered proxiable itself, because this risks bricking a proxy that upgrades to it, by delegating to itself until out of gas. Thus it is critical that this function revert if invoked through a proxy. This is guaranteed by the `notDelegated` modifier."
      },
      "renounceOwnership()": {
        "details": "Leaves the contract without owner. It will not be possible to call `onlyOwner` functions. Can only be called by the current owner. NOTE: Renouncing ownership will leave the contract without an owner, thereby disabling any functionality that is only available to the owner."
      },
      "setFeeCollectionAddress(address)": {
        "details": "Set the address that will receive all fees collected",
        "params": {
          "newAddress": "The address to receive fees"
        }
      },
      "setMinterRole(address)": {
        "details": "Set the address that will mint new tokens",
        "params": {
          "newAddress": "The address to mint tokens"
        }
      },
      "setOracleAddress(address)": {
        "details": "Set the LockedGoldOracle address",
        "params": {
          "oracleAddress": "The address for oracle"
        },
        "returns": {
          "_0": "An bool representing successfully changing oracle address"
        }
      },
      "symbol()": {
        "details": "Returns the symbol of the token."
      },
      "totalSupply()": {
        "details": "See {IERC20-totalSupply}."
      },
      "transfer(address,uint256)": {
        "details": "See {IERC20-transfer}. Requirements: - `to` cannot be the zero address. - the caller must have a balance of at least `amount`."
      },
      "transferAll(address)": {
        "details": "Utility function to transfer all tokens from the owner to another, taking into account the owed fees so the balance of the owner will be 0 after the transfer."
      },
      "transferFrom(address,address,uint256)": {
        "details": "See {IERC20-transferFrom}. Emits an {Approval} event indicating the updated allowance. This is not required by the EIP. See the note at the beginning of {ERC20}. NOTE: Does not update the allowance if the current allowance is the maximum `uint256`. Requirements: - `from` and `to` cannot be the zero address. - `from` must have a balance of at least `amount`. - the caller must have allowance for ``from``'s tokens of at least `amount`."
      },
      "transferOwnership(address)": {
        "details": "Starts the ownership transfer of the contract to a new account. Replaces the pending transfer if there is one. Can only be called by the current owner."
      },
      "upgradeToAndCall(address,bytes)": {
        "custom:oz-upgrades-unsafe-allow-reachable": "delegatecall",
        "details": "Upgrade the implementation of the proxy to `newImplementation`, and subsequently execute the function call encoded in `data`. Calls {_authorizeUpgrade}. Emits an {Upgraded} event."
      }
    },
    "version": 1
  },
  "userdoc": {
    "kind": "user",
    "methods": {
      "balanceOf(address)": {
        "notice": "shows the amount of tokens that are available to be transferred, after fees are deducted"
      },
      "balanceOfWithFee(address)": {
        "notice": "See {IERC20-balanceOf}."
      },
      "burn(address,uint256)": {
        "notice": "burns tokens, meaning that less real-world assets are now represented by the token"
      },
      "feeLastPaid(address)": {
        "notice": "returns the last time the fee was deducted for the given account"
      },
      "mint(uint256)": {
        "notice": "mints new tokens into circulation, meaning that more real-world assets are now represented by the token"
      }
    },
    "version": 1
  },
  "storageLayout": {
    "storage": [],
    "types": null
  }
}