{
  "address": "0xEd29e37f98dACb2273B6d0BBBD8f684d12452A3A",
  "abi": [
    {
      "inputs": [],
      "stateMutability": "nonpayable",
      "type": "constructor"
    },
    {
      "inputs": [],
      "name": "InvalidInitialization",
      "type": "error"
    },
    {
      "inputs": [],
      "name": "NotInitializing",
      "type": "error"
    },
    {
      "inputs": [
        {
          "internalType": "address",
          "name": "owner",
          "type": "address"
        }
      ],
      "name": "OwnableInvalidOwner",
      "type": "error"
    },
    {
      "inputs": [
        {
          "internalType": "address",
          "name": "account",
          "type": "address"
        }
      ],
      "name": "OwnableUnauthorizedAccount",
      "type": "error"
    },
    {
      "anonymous": false,
      "inputs": [
        {
          "indexed": false,
          "internalType": "address",
          "name": "previousAdmin",
          "type": "address"
        },
        {
          "indexed": false,
          "internalType": "address",
          "name": "newAdmin",
          "type": "address"
        }
      ],
      "name": "AdminChanged",
      "type": "event"
    },
    {
      "anonymous": false,
      "inputs": [
        {
          "indexed": true,
          "internalType": "address",
          "name": "owner",
          "type": "address"
        },
        {
          "indexed": true,
          "internalType": "address",
          "name": "spender",
          "type": "address"
        },
        {
          "indexed": false,
          "internalType": "uint256",
          "name": "value",
          "type": "uint256"
        }
      ],
      "name": "Approval",
      "type": "event"
    },
    {
      "anonymous": false,
      "inputs": [
        {
          "indexed": true,
          "internalType": "address",
          "name": "beacon",
          "type": "address"
        }
      ],
      "name": "BeaconUpgraded",
      "type": "event"
    },
    {
      "anonymous": false,
      "inputs": [
        {
          "indexed": false,
          "internalType": "uint256",
          "name": "newFee",
          "type": "uint256"
        }
      ],
      "name": "FeeChanged",
      "type": "event"
    },
    {
      "anonymous": false,
      "inputs": [
        {
          "indexed": false,
          "internalType": "uint64",
          "name": "version",
          "type": "uint64"
        }
      ],
      "name": "Initialized",
      "type": "event"
    },
    {
      "anonymous": false,
      "inputs": [
        {
          "indexed": false,
          "internalType": "address",
          "name": "oracle",
          "type": "address"
        }
      ],
      "name": "OracleAddressChanged",
      "type": "event"
    },
    {
      "anonymous": false,
      "inputs": [
        {
          "indexed": true,
          "internalType": "address",
          "name": "previousOwner",
          "type": "address"
        },
        {
          "indexed": true,
          "internalType": "address",
          "name": "newOwner",
          "type": "address"
        }
      ],
      "name": "OwnershipTransferStarted",
      "type": "event"
    },
    {
      "anonymous": false,
      "inputs": [
        {
          "indexed": true,
          "internalType": "address",
          "name": "previousOwner",
          "type": "address"
        },
        {
          "indexed": true,
          "internalType": "address",
          "name": "newOwner",
          "type": "address"
        }
      ],
      "name": "OwnershipTransferred",
      "type": "event"
    },
    {
      "anonymous": false,
      "inputs": [
        {
          "indexed": true,
          "internalType": "address",
          "name": "from",
          "type": "address"
        },
        {
          "indexed": true,
          "internalType": "address",
          "name": "to",
          "type": "address"
        },
        {
          "indexed": false,
          "internalType": "uint256",
          "name": "value",
          "type": "uint256"
        }
      ],
      "name": "Transfer",
      "type": "event"
    },
    {
      "anonymous": false,
      "inputs": [
        {
          "indexed": true,
          "internalType": "address",
          "name": "implementation",
          "type": "address"
        }
      ],
      "name": "Upgraded",
      "type": "event"
    },
    {
      "inputs": [],
      "name": "acceptOwnership",
      "outputs": [],
      "stateMutability": "nonpayable",
      "type": "function"
    },
    {
      "inputs": [
        {
          "internalType": "address",
          "name": "owner",
          "type": "address"
        },
        {
          "internalType": "address",
          "name": "spender",
          "type": "address"
        }
      ],
      "name": "allowance",
      "outputs": [
        {
          "internalType": "uint256",
          "name": "",
          "type": "uint256"
        }
      ],
      "stateMutability": "view",
      "type": "function"
    },
    {
      "inputs": [
        {
          "internalType": "address",
          "name": "spender",
          "type": "address"
        },
        {
          "internalType": "uint256",
          "name": "amount",
          "type": "uint256"
        }
      ],
      "name": "approve",
      "outputs": [
        {
          "internalType": "bool",
          "name": "",
          "type": "bool"
        }
      ],
      "stateMutability": "nonpayable",
      "type": "function"
    },
    {
      "inputs": [
        {
          "internalType": "address",
          "name": "account",
          "type": "address"
        }
      ],
      "name": "balanceOf",
      "outputs": [
        {
          "internalType": "uint256",
          "name": "",
          "type": "uint256"
        }
      ],
      "stateMutability": "view",
      "type": "function"
    },
    {
      "inputs": [
        {
          "internalType": "address",
          "name": "account",
          "type": "address"
        }
      ],
      "name": "balanceOfWithFee",
      "outputs": [
        {
          "internalType": "uint256",
          "name": "",
          "type": "uint256"
        }
      ],
      "stateMutability": "view",
      "type": "function"
    },
    {
      "inputs": [
        {
          "internalType": "address",
          "name": "account",
          "type": "address"
        },
        {
          "internalType": "uint256",
          "name": "amount",
          "type": "uint256"
        }
      ],
      "name": "burn",
      "outputs": [
        {
          "internalType": "uint256",
          "name": "",
          "type": "uint256"
        }
      ],
      "stateMutability": "nonpayable",
      "type": "function"
    },
    {
      "inputs": [
        {
          "internalType": "address[]",
          "name": "accounts",
          "type": "address[]"
        }
      ],
      "name": "collectFees",
      "outputs": [],
      "stateMutability": "nonpayable",
      "type": "function"
    },
    {
      "inputs": [],
      "name": "decimals",
      "outputs": [
        {
          "internalType": "uint8",
          "name": "",
          "type": "uint8"
        }
      ],
      "stateMutability": "view",
      "type": "function"
    },
    {
      "inputs": [
        {
          "internalType": "address",
          "name": "spender",
          "type": "address"
        },
        {
          "internalType": "uint256",
          "name": "subtractedValue",
          "type": "uint256"
        }
      ],
      "name": "decreaseAllowance",
      "outputs": [
        {
          "internalType": "bool",
          "name": "",
          "type": "bool"
        }
      ],
      "stateMutability": "nonpayable",
      "type": "function"
    },
    {
      "inputs": [],
      "name": "feeChangeMinDelay",
      "outputs": [
        {
          "internalType": "uint256",
          "name": "",
          "type": "uint256"
        }
      ],
      "stateMutability": "view",
      "type": "function"
    },
    {
      "inputs": [
        {
          "internalType": "address",
          "name": "account",
          "type": "address"
        }
      ],
      "name": "feeLastPaid",
      "outputs": [
        {
          "internalType": "uint256",
          "name": "",
          "type": "uint256"
        }
      ],
      "stateMutability": "view",
      "type": "function"
    },
    {
      "inputs": [],
      "name": "feeRate",
      "outputs": [
        {
          "internalType": "uint256",
          "name": "",
          "type": "uint256"
        }
      ],
      "stateMutability": "view",
      "type": "function"
    },
    {
      "inputs": [
        {
          "internalType": "address",
          "name": "spender",
          "type": "address"
        },
        {
          "internalType": "uint256",
          "name": "addedValue",
          "type": "uint256"
        }
      ],
      "name": "increaseAllowance",
      "outputs": [
        {
          "internalType": "bool",
          "name": "",
          "type": "bool"
        }
      ],
      "stateMutability": "nonpayable",
      "type": "function"
    },
    {
      "inputs": [],
      "name": "lastFeeChange",
      "outputs": [
        {
          "internalType": "uint256",
          "name": "",
          "type": "uint256"
        }
      ],
      "stateMutability": "view",
      "type": "function"
    },
    {
      "inputs": [],
      "name": "maxFee",
      "outputs": [
        {
          "internalType": "uint256",
          "name": "",
          "type": "uint256"
        }
      ],
      "stateMutability": "view",
      "type": "function"
    },
    {
      "inputs": [
        {
          "internalType": "uint256",
          "name": "amount",
          "type": "uint256"
        }
      ],
      "name": "mint",
      "outputs": [],
      "stateMutability": "nonpayable",
      "type": "function"
    },
    {
      "inputs": [],
      "name": "name",
      "outputs": [
        {
          "internalType": "string",
          "name": "",
          "type": "string"
        }
      ],
      "stateMutability": "pure",
      "type": "function"
    },
    {
      "inputs": [],
      "name": "oracle",
      "outputs": [
        {
          "internalType": "address",
          "name": "",
          "type": "address"
        }
      ],
      "stateMutability": "view",
      "type": "function"
    },
    {
      "inputs": [],
      "name": "owner",
      "outputs": [
        {
          "internalType": "address",
          "name": "",
          "type": "address"
        }
      ],
      "stateMutability": "view",
      "type": "function"
    },
    {
      "inputs": [],
      "name": "pendingOwner",
      "outputs": [
        {
          "internalType": "address",
          "name": "",
          "type": "address"
        }
      ],
      "stateMutability": "view",
      "type": "function"
    },
    {
      "inputs": [],
      "name": "proxiableUUID",
      "outputs": [
        {
          "internalType": "bytes32",
          "name": "",
          "type": "bytes32"
        }
      ],
      "stateMutability": "view",
      "type": "function"
    },
    {
      "inputs": [],
      "name": "renounceOwnership",
      "outputs": [],
      "stateMutability": "nonpayable",
      "type": "function"
    },
    {
      "inputs": [
        {
          "internalType": "address",
          "name": "newAddress",
          "type": "address"
        }
      ],
      "name": "setFeeCollectionAddress",
      "outputs": [],
      "stateMutability": "nonpayable",
      "type": "function"
    },
    {
      "inputs": [
        {
          "internalType": "uint256",
          "name": "newFee_",
          "type": "uint256"
        }
      ],
      "name": "setFeeRate",
      "outputs": [],
      "stateMutability": "nonpayable",
      "type": "function"
    },
    {
      "inputs": [
        {
          "internalType": "address",
          "name": "newAddress",
          "type": "address"
        }
      ],
      "name": "setMinterRole",
      "outputs": [],
      "stateMutability": "nonpayable",
      "type": "function"
    },
    {
      "inputs": [
        {
          "internalType": "address",
          "name": "oracleAddress",
          "type": "address"
        }
      ],
      "name": "setOracleAddress",
      "outputs": [
        {
          "internalType": "bool",
          "name": "",
          "type": "bool"
        }
      ],
      "stateMutability": "nonpayable",
      "type": "function"
    },
    {
      "inputs": [],
      "name": "symbol",
      "outputs": [
        {
          "internalType": "string",
          "name": "",
          "type": "string"
        }
      ],
      "stateMutability": "view",
      "type": "function"
    },
    {
      "inputs": [],
      "name": "totalSupply",
      "outputs": [
        {
          "internalType": "uint256",
          "name": "",
          "type": "uint256"
        }
      ],
      "stateMutability": "view",
      "type": "function"
    },
    {
      "inputs": [
        {
          "internalType": "address",
          "name": "to",
          "type": "address"
        },
        {
          "internalType": "uint256",
          "name": "amount",
          "type": "uint256"
        }
      ],
      "name": "transfer",
      "outputs": [
        {
          "internalType": "bool",
          "name": "",
          "type": "bool"
        }
      ],
      "stateMutability": "nonpayable",
      "type": "function"
    },
    {
      "inputs": [
        {
          "internalType": "address",
          "name": "to",
          "type": "address"
        }
      ],
      "name": "transferAll",
      "outputs": [
        {
          "internalType": "bool",
          "name": "",
          "type": "bool"
        }
      ],
      "stateMutability": "nonpayable",
      "type": "function"
    },
    {
      "inputs": [
        {
          "internalType": "address",
          "name": "from",
          "type": "address"
        },
        {
          "internalType": "address",
          "name": "to",
          "type": "address"
        },
        {
          "internalType": "uint256",
          "name": "amount",
          "type": "uint256"
        }
      ],
      "name": "transferFrom",
      "outputs": [
        {
          "internalType": "bool",
          "name": "",
          "type": "bool"
        }
      ],
      "stateMutability": "nonpayable",
      "type": "function"
    },
    {
      "inputs": [
        {
          "internalType": "address",
          "name": "newOwner",
          "type": "address"
        }
      ],
      "name": "transferOwnership",
      "outputs": [],
      "stateMutability": "nonpayable",
      "type": "function"
    },
    {
      "inputs": [
        {
          "internalType": "address",
          "name": "newImplementation",
          "type": "address"
        }
      ],
      "name": "upgradeTo",
      "outputs": [],
      "stateMutability": "nonpayable",
      "type": "function"
    },
    {
      "inputs": [
        {
          "internalType": "address",
          "name": "newImplementation",
          "type": "address"
        },
        {
          "internalType": "bytes",
          "name": "data",
          "type": "bytes"
        }
      ],
      "name": "upgradeToAndCall",
      "outputs": [],
      "stateMutability": "payable",
      "type": "function"
    }
  ],
  "transactionHash": "0x99a03d95d731aa588a8b6866002db73d17a719d82493050d2d19070d50911e4e",
  "args": [],
  "numDeployments": 3,
  "solcInputHash": "df561dbabd68d7da5c1d213cd62dbb3e",
  "bytecode": "0x60a0604052306080523480156200001557600080fd5b506200002062000026565b620000da565b7ff0c57e16840df040f15088dc2f81fe391c3923bec73e23a9662efc9c229c6a00805468010000000000000000900460ff1615620000775760405163f92ee8a960e01b815260040160405180910390fd5b80546001600160401b0390811614620000d75780546001600160401b0319166001600160401b0390811782556040519081527fc7f505b2f371ae2175ee4913f4499e1f2633a7b5936321eed1cdaeb6115181d29060200160405180910390a15b50565b608051612f556200011260003960008181610813015281816108ae01528181610d1201528181610da80152610ea30152612f556000f3fe6080604052600436106102195760003560e01c8063715018a61161011d578063a0712d68116100b0578063b8cc76fb1161007f578063dd62ed3e11610064578063dd62ed3e1461072f578063e30c397814610794578063f2fde38b146107a957600080fd5b8063b8cc76fb146106ba578063ceee577e146106da57600080fd5b8063a0712d681461063a578063a3a7e7f31461065a578063a457c2d71461067a578063a9059cbb1461069a57600080fd5b8063945d1229116100ec578063945d1229146105b157806395d89b41146105d1578063978bbdb9146105e65780639dc29fac1461061a57600080fd5b8063715018a61461051c57806379ba5097146105315780637dc0d1d0146105465780638da5cb5b1461059c57600080fd5b806339509351116101b05780634f1ef2861161017f57806358c0f7291161016457806358c0f729146104a857806369505688146104c857806370a08231146104fc57600080fd5b80634f1ef2861461048057806352d1902d1461049357600080fd5b806339509351146103cb57806345596e2e146103eb5780634bcc1aef1461040b5780634c69c00f1461046057600080fd5b806318160ddd116101ec57806318160ddd1461031457806323b872dd14610348578063313ce567146103685780633659cfe6146103a957600080fd5b806301f59d161461021e57806306fdde0314610261578063095ea7b3146102b0578063142a1515146102e0575b600080fd5b34801561022a57600080fd5b507f84f93370f668d60ff19344e905d5e5ea70bb94f6b70992c58975d1579ea0540d545b6040519081526020015b60405180910390f35b34801561026d57600080fd5b5060408051808201909152601681527f44656e6172696f2053696c76657220436f696e2056330000000000000000000060208201525b6040516102589190612a99565b3480156102bc57600080fd5b506102d06102cb366004612ae3565b6107c9565b6040519015158152602001610258565b3480156102ec57600080fd5b507f84f93370f668d60ff19344e905d5e5ea70bb94f6b70992c58975d1579ea0540e5461024e565b34801561032057600080fd5b507f84f93370f668d60ff19344e905d5e5ea70bb94f6b70992c58975d1579ea054025461024e565b34801561035457600080fd5b506102d0610363366004612b0d565b6107e3565b34801561037457600080fd5b507f84f93370f668d60ff19344e905d5e5ea70bb94f6b70992c58975d1579ea054055460405160ff9091168152602001610258565b3480156103b557600080fd5b506103c96103c4366004612b49565b610809565b005b3480156103d757600080fd5b506102d06103e6366004612ae3565b6109ab565b3480156103f757600080fd5b506103c9610406366004612b64565b610a09565b34801561041757600080fd5b5061024e610426366004612b49565b6001600160a01b031660009081527f84f93370f668d60ff19344e905d5e5ea70bb94f6b70992c58975d1579ea05400602052604090205490565b34801561046c57600080fd5b506102d061047b366004612b49565b610bc5565b6103c961048e366004612b93565b610d08565b34801561049f57600080fd5b5061024e610e96565b3480156104b457600080fd5b506103c96104c3366004612c55565b610f5b565b3480156104d457600080fd5b507f84f93370f668d60ff19344e905d5e5ea70bb94f6b70992c58975d1579ea0540c5461024e565b34801561050857600080fd5b5061024e610517366004612b49565b610fad565b34801561052857600080fd5b506103c9611033565b34801561053d57600080fd5b506103c9611047565b34801561055257600080fd5b507f84f93370f668d60ff19344e905d5e5ea70bb94f6b70992c58975d1579ea054055461010090046001600160a01b03165b6040516001600160a01b039091168152602001610258565b3480156105a857600080fd5b506105846110a5565b3480156105bd57600080fd5b506103c96105cc366004612b49565b6110da565b3480156105dd57600080fd5b506102a36111e7565b3480156105f257600080fd5b507f84f93370f668d60ff19344e905d5e5ea70bb94f6b70992c58975d1579ea0540a5461024e565b34801561062657600080fd5b5061024e610635366004612ae3565b6112bc565b34801561064657600080fd5b506103c9610655366004612b64565b6114a3565b34801561066657600080fd5b506102d0610675366004612b49565b6116fd565b34801561068657600080fd5b506102d0610695366004612ae3565b611721565b3480156106a657600080fd5b506102d06106b5366004612ae3565b6117f5565b3480156106c657600080fd5b506103c96106d5366004612b49565b611803565b3480156106e657600080fd5b5061024e6106f5366004612b49565b6001600160a01b031660009081527f84f93370f668d60ff19344e905d5e5ea70bb94f6b70992c58975d1579ea05406602052604090205490565b34801561073b57600080fd5b5061024e61074a366004612cca565b6001600160a01b0391821660009081527f84f93370f668d60ff19344e905d5e5ea70bb94f6b70992c58975d1579ea054016020908152604080832093909416825291909152205490565b3480156107a057600080fd5b50610584611910565b3480156107b557600080fd5b506103c96107c4366004612b49565b611939565b6000336107d78185856119cb565b60019150505b92915050565b6000336107f1858285611b68565b6107fc858585611c19565b60019150505b9392505050565b6001600160a01b037f00000000000000000000000000000000000000000000000000000000000000001630036108ac5760405162461bcd60e51b815260206004820152602c60248201527f46756e6374696f6e206d7573742062652063616c6c6564207468726f7567682060448201527f64656c656761746563616c6c000000000000000000000000000000000000000060648201526084015b60405180910390fd5b7f00000000000000000000000000000000000000000000000000000000000000006001600160a01b03166109077f360894a13ba1a3210667c828492db98dca3e2076cc3735a920a3ca505d382bbc546001600160a01b031690565b6001600160a01b0316146109835760405162461bcd60e51b815260206004820152602c60248201527f46756e6374696f6e206d7573742062652063616c6c6564207468726f7567682060448201527f6163746976652070726f7879000000000000000000000000000000000000000060648201526084016108a3565b61098c81611f82565b604080516000808252602082019092526109a891839190611f8a565b50565b3360008181527f84f93370f668d60ff19344e905d5e5ea70bb94f6b70992c58975d1579ea05401602090815260408083206001600160a01b03871684529091528120549091906107d79082908690610a04908790612d13565b6119cb565b610a1161212a565b7f84f93370f668d60ff19344e905d5e5ea70bb94f6b70992c58975d1579ea0540d547f84f93370f668d60ff19344e905d5e5ea70bb94f6b70992c58975d1579ea0540090821115610aca5760405162461bcd60e51b815260206004820152602e60248201527f455243323057697468466565733a206665652063616e6e6f74206265206d6f7260448201527f65207468616e206d61782066656500000000000000000000000000000000000060648201526084016108a3565b600e810154600c820154610ade9042612d26565b11610b515760405162461bcd60e51b815260206004820152602a60248201527f455243323057697468466565733a20666565206368616e67652064656c61792060448201527f6e6f74207061737365640000000000000000000000000000000000000000000060648201526084016108a3565b42600c820155600a8082018390556005820154610b8491610b759160ff1690612e1d565b6301e1338083600a0154612175565b600b820155600a8101546040519081527f6bbc57480a46553fa4d156ce702beef5f3ad66303b0ed1a5d4cb44966c6584c39060200160405180910390a15050565b6000610bcf61212a565b6001600160a01b038216610c4b5760405162461bcd60e51b815260206004820152602c60248201527f455243323057697468466565733a206f7261636c65206164647265737320636160448201527f6e6e6f74206265207a65726f000000000000000000000000000000000000000060648201526084016108a3565b7f84f93370f668d60ff19344e905d5e5ea70bb94f6b70992c58975d1579ea0540580546001600160a01b03841661010081027fffffffffffffffffffffff0000000000000000000000000000000000000000ff9092169190911790915560408051918252517f84f93370f668d60ff19344e905d5e5ea70bb94f6b70992c58975d1579ea05400917fe420b96152542f57ce3d2d26d939a3c2860a82361801ad0a970a3badc32d538e919081900360200190a160019150505b919050565b6001600160a01b037f0000000000000000000000000000000000000000000000000000000000000000163003610da65760405162461bcd60e51b815260206004820152602c60248201527f46756e6374696f6e206d7573742062652063616c6c6564207468726f7567682060448201527f64656c656761746563616c6c000000000000000000000000000000000000000060648201526084016108a3565b7f00000000000000000000000000000000000000000000000000000000000000006001600160a01b0316610e017f360894a13ba1a3210667c828492db98dca3e2076cc3735a920a3ca505d382bbc546001600160a01b031690565b6001600160a01b031614610e7d5760405162461bcd60e51b815260206004820152602c60248201527f46756e6374696f6e206d7573742062652063616c6c6564207468726f7567682060448201527f6163746976652070726f7879000000000000000000000000000000000000000060648201526084016108a3565b610e8682611f82565b610e9282826001611f8a565b5050565b6000306001600160a01b037f00000000000000000000000000000000000000000000000000000000000000001614610f365760405162461bcd60e51b815260206004820152603860248201527f555550535570677261646561626c653a206d757374206e6f742062652063616c60448201527f6c6564207468726f7567682064656c656761746563616c6c000000000000000060648201526084016108a3565b507f360894a13ba1a3210667c828492db98dca3e2076cc3735a920a3ca505d382bbc90565b60005b81811015610fa857610f95838383818110610f7b57610f7b612e2c565b9050602002016020810190610f909190612b49565b612267565b5080610fa081612e42565b915050610f5e565b505050565b60007f84f93370f668d60ff19344e905d5e5ea70bb94f6b70992c58975d1579ea0540081610fda84612365565b6001600160a01b038516600090815260208490526040902054909150811115611007575060009392505050565b6001600160a01b03841660009081526020839052604090205461102b908290612d26565b949350505050565b61103b61212a565b611045600061249b565b565b3380611051611910565b6001600160a01b03161461109c576040517f118cdaa70000000000000000000000000000000000000000000000000000000081526001600160a01b03821660048201526024016108a3565b6109a88161249b565b6000807f9016d09d72d40fdae2fd8ceac6b6234c7706214fd39c1cd1e609a0528c1993005b546001600160a01b031692915050565b6110e261212a565b6001600160a01b03811661115e5760405162461bcd60e51b815260206004820152603060248201527f455243323057697468466565733a20636f6c6c656374696f6e2061646472657360448201527f732063616e6e6f74206265207a65726f0000000000000000000000000000000060648201526084016108a3565b7f84f93370f668d60ff19344e905d5e5ea70bb94f6b70992c58975d1579ea05409547f84f93370f668d60ff19344e905d5e5ea70bb94f6b70992c58975d1579ea05400906111b4906001600160a01b03166124e0565b60098101805473ffffffffffffffffffffffffffffffffffffffff19166001600160a01b038416179055610e9282612554565b7f84f93370f668d60ff19344e905d5e5ea70bb94f6b70992c58975d1579ea0540480546060917f84f93370f668d60ff19344e905d5e5ea70bb94f6b70992c58975d1579ea054009161123890612e5c565b80601f016020809104026020016040519081016040528092919081815260200182805461126490612e5c565b80156112b15780601f10611286576101008083540402835291602001916112b1565b820191906000526020600020905b81548152906001019060200180831161129457829003601f168201915b505050505091505090565b7f84f93370f668d60ff19344e905d5e5ea70bb94f6b70992c58975d1579ea05409546000907f84f93370f668d60ff19344e905d5e5ea70bb94f6b70992c58975d1579ea05400906001600160a01b031633146113805760405162461bcd60e51b815260206004820152603160248201527f455243323057697468466565733a206f6e6c79206d696e7465722063616e206360448201527f616c6c20746869732066756e6374696f6e00000000000000000000000000000060648201526084016108a3565b6001600160a01b0384166113fc5760405162461bcd60e51b815260206004820152602760248201527f45524332303a2063616e2774206275726e2066726f6d20746865207a65726f2060448201527f616464726573730000000000000000000000000000000000000000000000000060648201526084016108a3565b7f84f93370f668d60ff19344e905d5e5ea70bb94f6b70992c58975d1579ea05400336001600160a01b038616811461143957611439868287611b68565b600061144487612267565b905060008111801561146d57506001600160a01b03871660009081526020849052604090205486115b1561148e576001600160a01b03871660009081526020849052604090205495505b611498878761259f565b509395945050505050565b7f84f93370f668d60ff19344e905d5e5ea70bb94f6b70992c58975d1579ea05409547f84f93370f668d60ff19344e905d5e5ea70bb94f6b70992c58975d1579ea05400906001600160a01b031633146115645760405162461bcd60e51b815260206004820152603160248201527f455243323057697468466565733a206f6e6c79206d696e7465722063616e206360448201527f616c6c20746869732066756e6374696f6e00000000000000000000000000000060648201526084016108a3565b7f84f93370f668d60ff19344e905d5e5ea70bb94f6b70992c58975d1579ea05405547f84f93370f668d60ff19344e905d5e5ea70bb94f6b70992c58975d1579ea054009061010090046001600160a01b0316156116e55760008160050160019054906101000a90046001600160a01b03166001600160a01b031663d2c469326040518163ffffffff1660e01b8152600401602060405180830381865afa158015611612573d6000803e3d6000fd5b505050506040513d601f19601f820116820180604052508101906116369190612e96565b90508160020154846116489190612d13565b8110156116e35760405162461bcd60e51b815260206004820152604360248201527f455243323057697468466565733a206e657720746f74616c20737570706c792060448201527f616d6f756e7420776f756c642065786365656420726573657276652062616c6160648201527f6e63650000000000000000000000000000000000000000000000000000000000608482015260a4016108a3565b505b6009810154610fa8906001600160a01b0316846126c4565b6000338161170a82610fad565b9050611717828583611c19565b5060019392505050565b3360008181527f84f93370f668d60ff19344e905d5e5ea70bb94f6b70992c58975d1579ea05401602090815260408083206001600160a01b0387168452909152812054909190838110156117dd5760405162461bcd60e51b815260206004820152602560248201527f45524332303a2064656372656173656420616c6c6f77616e63652062656c6f7760448201527f207a65726f00000000000000000000000000000000000000000000000000000060648201526084016108a3565b6117ea82868684036119cb565b506001949350505050565b6000336107d7818585611c19565b61180b61212a565b6001600160a01b0381166118875760405162461bcd60e51b815260206004820152603060248201527f455243323057697468466565733a20636f6c6c656374696f6e2061646472657360448201527f732063616e6e6f74206265207a65726f0000000000000000000000000000000060648201526084016108a3565b7f84f93370f668d60ff19344e905d5e5ea70bb94f6b70992c58975d1579ea05408547f84f93370f668d60ff19344e905d5e5ea70bb94f6b70992c58975d1579ea05400906118dd906001600160a01b03166124e0565b60088101805473ffffffffffffffffffffffffffffffffffffffff19166001600160a01b038416179055610e9282612554565b6000807f237e158222e3e6968b72b9db0d8043aacf074ad9f650f0d1606b4d82ee432c006110ca565b61194161212a565b7f237e158222e3e6968b72b9db0d8043aacf074ad9f650f0d1606b4d82ee432c00805473ffffffffffffffffffffffffffffffffffffffff19166001600160a01b03831690811782556119926110a5565b6001600160a01b03167f38d16b8cac22d99fc7c124b9cd0de2d3fa1faef420bfe791d8c362d765e2270060405160405180910390a35050565b6001600160a01b038316611a465760405162461bcd60e51b8152602060048201526024808201527f45524332303a20617070726f76652066726f6d20746865207a65726f2061646460448201527f726573730000000000000000000000000000000000000000000000000000000060648201526084016108a3565b6001600160a01b038216611ac25760405162461bcd60e51b815260206004820152602260248201527f45524332303a20617070726f766520746f20746865207a65726f20616464726560448201527f737300000000000000000000000000000000000000000000000000000000000060648201526084016108a3565b6001600160a01b0383811660008181527f84f93370f668d60ff19344e905d5e5ea70bb94f6b70992c58975d1579ea05401602090815260408083209487168084529482529182902085905590518481527f84f93370f668d60ff19344e905d5e5ea70bb94f6b70992c58975d1579ea054009392917f8c5be1e5ebec7d5bd14f71427d1e84f3dd0314c0f7b2291e5b200ac8c7c3b92591015b60405180910390a350505050565b6001600160a01b0383811660009081527f84f93370f668d60ff19344e905d5e5ea70bb94f6b70992c58975d1579ea0540160209081526040808320938616835292905220546000198114611c135781811015611c065760405162461bcd60e51b815260206004820152601d60248201527f45524332303a20696e73756666696369656e7420616c6c6f77616e636500000060448201526064016108a3565b611c1384848484036119cb565b50505050565b6001600160a01b038316611c955760405162461bcd60e51b815260206004820152602560248201527f45524332303a207472616e736665722066726f6d20746865207a65726f20616460448201527f647265737300000000000000000000000000000000000000000000000000000060648201526084016108a3565b6001600160a01b038216611d115760405162461bcd60e51b815260206004820152602360248201527f45524332303a207472616e7366657220746f20746865207a65726f206164647260448201527f657373000000000000000000000000000000000000000000000000000000000060648201526084016108a3565b60008111611d875760405162461bcd60e51b815260206004820152602d60248201527f45524332303a207472616e7366657220616d6f756e74206d757374206265206760448201527f726561746572207468616e20300000000000000000000000000000000000000060648201526084016108a3565b816001600160a01b0316836001600160a01b031603611e0e5760405162461bcd60e51b815260206004820152602360248201527f45524332303a2073656c66207472616e73666572206973206e6f7420616c6c6f60448201527f776564000000000000000000000000000000000000000000000000000000000060648201526084016108a3565b7f84f93370f668d60ff19344e905d5e5ea70bb94f6b70992c58975d1579ea05400611e3884612267565b506001600160a01b038416600090815260208290526040902054821115611ec75760405162461bcd60e51b815260206004820152602660248201527f45524332303a207472616e7366657220616d6f756e742065786365656473206260448201527f616c616e6365000000000000000000000000000000000000000000000000000060648201526084016108a3565b6001600160a01b038416600090815260208290526040902054611eeb908390612d26565b6001600160a01b038516600090815260208390526040902055611f0d83612267565b506001600160a01b03831660009081526020829052604081208054849290611f36908490612d13565b92505081905550826001600160a01b0316846001600160a01b03167fddf252ad1be2c89b69c2b068fc378daa952ba7f163c4a11628f55a4df523b3ef84604051611b5a91815260200190565b6109a861212a565b7f4910fdfa16fed3260ed0e7147f7cc6da11a60208b5b9406d12a635614ffd91435460ff1615611fbd57610fa883612791565b826001600160a01b03166352d1902d6040518163ffffffff1660e01b8152600401602060405180830381865afa925050508015612017575060408051601f3d908101601f1916820190925261201491810190612e96565b60015b6120895760405162461bcd60e51b815260206004820152602e60248201527f45524331393637557067726164653a206e657720696d706c656d656e7461746960448201527f6f6e206973206e6f74205555505300000000000000000000000000000000000060648201526084016108a3565b7f360894a13ba1a3210667c828492db98dca3e2076cc3735a920a3ca505d382bbc811461211e5760405162461bcd60e51b815260206004820152602960248201527f45524331393637557067726164653a20756e737570706f727465642070726f7860448201527f6961626c6555554944000000000000000000000000000000000000000000000060648201526084016108a3565b50610fa883838361285c565b336121336110a5565b6001600160a01b031614611045576040517f118cdaa70000000000000000000000000000000000000000000000000000000081523360048201526024016108a3565b60008080600019858709858702925082811083820303915050806000036121af578382816121a5576121a5612eaf565b0492505050610802565b8084116121fe5760405162461bcd60e51b815260206004820152601560248201527f4d6174683a206d756c446976206f766572666c6f77000000000000000000000060448201526064016108a3565b60008486880960026001871981018816978890046003810283188082028403028082028403028082028403028082028403028082028403029081029092039091026000889003889004909101858311909403939093029303949094049190911702949350505050565b60007f84f93370f668d60ff19344e905d5e5ea70bb94f6b70992c58975d1579ea054008161229484612365565b90508015612342576001600160a01b038416600090815260208390526040812080548392906122c4908490612d26565b909155505060088201546001600160a01b0316600090815260208390526040812080548392906122f5908490612d13565b909155505060088201546040518281526001600160a01b03918216918616907fddf252ad1be2c89b69c2b068fc378daa952ba7f163c4a11628f55a4df523b3ef9060200160405180910390a35b6001600160a01b0390931660009081526006909101602052604090204290555090565b6001600160a01b03811660009081527f84f93370f668d60ff19344e905d5e5ea70bb94f6b70992c58975d1579ea054006020819052604082205415806123c557506001600160a01b038316600090815260078201602052604090205460ff165b156123d35750600092915050565b600c8101546001600160a01b03841660009081526006830160205260408120549091106124045781600c0154612420565b6001600160a01b03841660009081526006830160205260409020545b9050600061242e8242612d26565b905082600b0154811061245c5750506001600160a01b03909216600090815260209290925250604090205490565b61249283600a01548261246f9190612ec5565b6001600160a01b038716600090815260208690526040902054600f860154612175565b95945050505050565b7f237e158222e3e6968b72b9db0d8043aacf074ad9f650f0d1606b4d82ee432c00805473ffffffffffffffffffffffffffffffffffffffff19168155610e9282612881565b6124e861212a565b6001600160a01b031660009081527f84f93370f668d60ff19344e905d5e5ea70bb94f6b70992c58975d1579ea0540760209081526040808320805460ff191690557f84f93370f668d60ff19344e905d5e5ea70bb94f6b70992c58975d1579ea054069091529020429055565b61255c61212a565b6001600160a01b031660009081527f84f93370f668d60ff19344e905d5e5ea70bb94f6b70992c58975d1579ea0540760205260409020805460ff19166001179055565b6001600160a01b03821660009081527f84f93370f668d60ff19344e905d5e5ea70bb94f6b70992c58975d1579ea054006020819052604090912054828110156126505760405162461bcd60e51b815260206004820152602260248201527f45524332303a206275726e20616d6f756e7420657863656564732062616c616e60448201527f636500000000000000000000000000000000000000000000000000000000000060648201526084016108a3565b6001600160a01b03841660009081526020839052604081208483039055600283018054859290612681908490612d26565b90915550506040518381526000906001600160a01b038616907fddf252ad1be2c89b69c2b068fc378daa952ba7f163c4a11628f55a4df523b3ef90602001611b5a565b7f84f93370f668d60ff19344e905d5e5ea70bb94f6b70992c58975d1579ea0540280547f84f93370f668d60ff19344e905d5e5ea70bb94f6b70992c58975d1579ea05400918391600090612719908490612d13565b90915550506001600160a01b03831660009081526020829052604081208054849290612746908490612d13565b90915550506040518281526001600160a01b038416906000907fddf252ad1be2c89b69c2b068fc378daa952ba7f163c4a11628f55a4df523b3ef9060200160405180910390a3505050565b6001600160a01b0381163b61280e5760405162461bcd60e51b815260206004820152602d60248201527f455243313936373a206e657720696d706c656d656e746174696f6e206973206e60448201527f6f74206120636f6e74726163740000000000000000000000000000000000000060648201526084016108a3565b7f360894a13ba1a3210667c828492db98dca3e2076cc3735a920a3ca505d382bbc805473ffffffffffffffffffffffffffffffffffffffff19166001600160a01b0392909216919091179055565b612865836128ff565b6000825111806128725750805b15610fa857611c13838361293f565b7f9016d09d72d40fdae2fd8ceac6b6234c7706214fd39c1cd1e609a0528c199300805473ffffffffffffffffffffffffffffffffffffffff1981166001600160a01b03848116918217845560405192169182907f8be0079c531659141344cd1fd0a4f28419497f9722a3daafe3b4186f6b6457e090600090a3505050565b61290881612791565b6040516001600160a01b038216907fbc7cd75a20ee27fd9adebab32041f755214dbc6bffa90cc0225b39da2e5c2d3b90600090a250565b60606108028383604051806060016040528060278152602001612ef9602791396060600080856001600160a01b03168560405161297c9190612edc565b600060405180830381855af49150503d80600081146129b7576040519150601f19603f3d011682016040523d82523d6000602084013e6129bc565b606091505b50915091506129cd868383876129d7565b9695505050505050565b60608315612a46578251600003612a3f576001600160a01b0385163b612a3f5760405162461bcd60e51b815260206004820152601d60248201527f416464726573733a2063616c6c20746f206e6f6e2d636f6e747261637400000060448201526064016108a3565b508161102b565b61102b8383815115612a5b5781518083602001fd5b8060405162461bcd60e51b81526004016108a39190612a99565b60005b83811015612a90578181015183820152602001612a78565b50506000910152565b6020815260008251806020840152612ab8816040850160208701612a75565b601f01601f19169190910160400192915050565b80356001600160a01b0381168114610d0357600080fd5b60008060408385031215612af657600080fd5b612aff83612acc565b946020939093013593505050565b600080600060608486031215612b2257600080fd5b612b2b84612acc565b9250612b3960208501612acc565b9150604084013590509250925092565b600060208284031215612b5b57600080fd5b61080282612acc565b600060208284031215612b7657600080fd5b5035919050565b634e487b7160e01b600052604160045260246000fd5b60008060408385031215612ba657600080fd5b612baf83612acc565b9150602083013567ffffffffffffffff80821115612bcc57600080fd5b818501915085601f830112612be057600080fd5b813581811115612bf257612bf2612b7d565b604051601f8201601f19908116603f01168101908382118183101715612c1a57612c1a612b7d565b81604052828152886020848701011115612c3357600080fd5b8260208601602083013760006020848301015280955050505050509250929050565b60008060208385031215612c6857600080fd5b823567ffffffffffffffff80821115612c8057600080fd5b818501915085601f830112612c9457600080fd5b813581811115612ca357600080fd5b8660208260051b8501011115612cb857600080fd5b60209290920196919550909350505050565b60008060408385031215612cdd57600080fd5b612ce683612acc565b9150612cf460208401612acc565b90509250929050565b634e487b7160e01b600052601160045260246000fd5b808201808211156107dd576107dd612cfd565b818103818111156107dd576107dd612cfd565b600181815b80851115612d74578160001904821115612d5a57612d5a612cfd565b80851615612d6757918102915b93841c9390800290612d3e565b509250929050565b600082612d8b575060016107dd565b81612d98575060006107dd565b8160018114612dae5760028114612db857612dd4565b60019150506107dd565b60ff841115612dc957612dc9612cfd565b50506001821b6107dd565b5060208310610133831016604e8410600b8410161715612df7575081810a6107dd565b612e018383612d39565b8060001904821115612e1557612e15612cfd565b029392505050565b600061080260ff841683612d7c565b634e487b7160e01b600052603260045260246000fd5b60006000198203612e5557612e55612cfd565b5060010190565b600181811c90821680612e7057607f821691505b602082108103612e9057634e487b7160e01b600052602260045260246000fd5b50919050565b600060208284031215612ea857600080fd5b5051919050565b634e487b7160e01b600052601260045260246000fd5b80820281158282048414176107dd576107dd612cfd565b60008251612eee818460208701612a75565b919091019291505056fe416464726573733a206c6f772d6c6576656c2064656c65676174652063616c6c206661696c6564a26469706673582212209f9bb504fe1510f37d11a628bb067e41bb46be685224e09055de05ad07e736c464736f6c63430008140033",
  "devdoc": {
    "errors": {
      "InvalidInitialization()": [
        {
          "details": "The contract is already initialized."
        }
      ],
      "NotInitializing()": [
        {
          "details": "The contract is not initializing."
        }
      ],
      "OwnableInvalidOwner(address)": [
        {
          "details": "The owner is not a valid owner account. (eg. `address(0)`)"
        }
      ],
      "OwnableUnauthorizedAccount(address)": [
        {
          "details": "The caller account is not authorized to perform an operation."
        }
      ]
    },
    "events": {
      "AdminChanged(address,address)": {
        "details": "Emitted when the admin account has changed."
      },
      "Approval(address,address,uint256)": {
        "details": "Emitted when the allowance of a `spender` for an `owner` is set by a call to {approve}. `value` is the new allowance."
      },
      "BeaconUpgraded(address)": {
        "details": "Emitted when the beacon is changed."
      },
      "Initialized(uint64)": {
        "details": "Triggered when the contract has been initialized or reinitialized."
      },
      "Transfer(address,address,uint256)": {
        "details": "Emitted when `value` tokens are moved from one account (`from`) to another (`to`). Note that `value` may be zero."
      },
      "Upgraded(address)": {
        "details": "Emitted when the implementation is upgraded."
      }
    },
    "kind": "dev",
    "methods": {
      "acceptOwnership()": {
        "details": "The new owner accepts the ownership transfer."
      },
      "allowance(address,address)": {
        "details": "See {IERC20-allowance}."
      },
      "approve(address,uint256)": {
        "details": "See {IERC20-approve}. NOTE: If `amount` is the maximum `uint256`, the allowance is not updated on `transferFrom`. This is semantically equivalent to an infinite approval. Requirements: - `spender` cannot be the zero address."
      },
      "burn(address,uint256)": {
        "details": "only the minter can burn tokens, with the approval of the owner this is used in the process of redeeming tokens for real-world assets if the owner has not enough balance to burn + pay fees, the fee will be paid from the burn amount",
        "params": {
          "account": "the account to burn tokens from",
          "amount": "the amount of tokens to burn"
        }
      },
      "constructor": {
        "custom:oz-upgrades-unsafe-allow": "constructor"
      },
      "decimals()": {
        "details": "Returns the decimals places of the token."
      },
      "decreaseAllowance(address,uint256)": {
        "details": "Atomically decreases the allowance granted to `spender` by the caller. This is an alternative to {approve} that can be used as a mitigation for problems described in {IERC20-approve}. Emits an {Approval} event indicating the updated allowance. Requirements: - `spender` cannot be the zero address. - `spender` must have allowance for the caller of at least `subtractedValue`."
      },
      "feeLastPaid(address)": {
        "details": "returns 0 if the account has never had a fee deducted -> never held tokens"
      },
      "increaseAllowance(address,uint256)": {
        "details": "Atomically increases the allowance granted to `spender` by the caller. This is an alternative to {approve} that can be used as a mitigation for problems described in {IERC20-approve}. Emits an {Approval} event indicating the updated allowance. Requirements: - `spender` cannot be the zero address."
      },
      "mint(uint256)": {
        "details": "only the minter can mint new tokens"
      },
      "name()": {
        "details": "Returns the name of the token."
      },
      "owner()": {
        "details": "Returns the address of the current owner."
      },
      "pendingOwner()": {
        "details": "Returns the address of the pending owner."
      },
      "proxiableUUID()": {
        "details": "Implementation of the ERC1822 {proxiableUUID} function. This returns the storage slot used by the implementation. It is used to validate the implementation's compatibility when performing an upgrade. IMPORTANT: A proxy pointing at a proxiable contract should not be considered proxiable itself, because this risks bricking a proxy that upgrades to it, by delegating to itself until out of gas. Thus it is critical that this function revert if invoked through a proxy. This is guaranteed by the `notDelegated` modifier."
      },
      "renounceOwnership()": {
        "details": "Leaves the contract without owner. It will not be possible to call `onlyOwner` functions. Can only be called by the current owner. NOTE: Renouncing ownership will leave the contract without an owner, thereby disabling any functionality that is only available to the owner."
      },
      "setFeeCollectionAddress(address)": {
        "details": "Set the address that will receive all fees collected",
        "params": {
          "newAddress": "The address to receive fees"
        }
      },
      "setMinterRole(address)": {
        "details": "Set the address that will mint new tokens",
        "params": {
          "newAddress": "The address to mint tokens"
        }
      },
      "setOracleAddress(address)": {
        "details": "Set the LockedGoldOracle address",
        "params": {
          "oracleAddress": "The address for oracle"
        },
        "returns": {
          "_0": "An bool representing successfully changing oracle address"
        }
      },
      "symbol()": {
        "details": "Returns the symbol of the token."
      },
      "totalSupply()": {
        "details": "See {IERC20-totalSupply}."
      },
      "transfer(address,uint256)": {
        "details": "See {IERC20-transfer}. Requirements: - `to` cannot be the zero address. - the caller must have a balance of at least `amount`."
      },
      "transferAll(address)": {
        "details": "Utility function to transfer all tokens from the owner to another, taking into account the owed fees so the balance of the owner will be 0 after the transfer."
      },
      "transferFrom(address,address,uint256)": {
        "details": "See {IERC20-transferFrom}. Emits an {Approval} event indicating the updated allowance. This is not required by the EIP. See the note at the beginning of {ERC20}. NOTE: Does not update the allowance if the current allowance is the maximum `uint256`. Requirements: - `from` and `to` cannot be the zero address. - `from` must have a balance of at least `amount`. - the caller must have allowance for ``from``'s tokens of at least `amount`."
      },
      "transferOwnership(address)": {
        "details": "Starts the ownership transfer of the contract to a new account. Replaces the pending transfer if there is one. Can only be called by the current owner."
      },
      "upgradeTo(address)": {
        "custom:oz-upgrades-unsafe-allow-reachable": "delegatecall",
        "details": "Upgrade the implementation of the proxy to `newImplementation`. Calls {_authorizeUpgrade}. Emits an {Upgraded} event."
      },
      "upgradeToAndCall(address,bytes)": {
        "custom:oz-upgrades-unsafe-allow-reachable": "delegatecall",
        "details": "Upgrade the implementation of the proxy to `newImplementation`, and subsequently execute the function call encoded in `data`. Calls {_authorizeUpgrade}. Emits an {Upgraded} event."
      }
    },
    "version": 1
  },
  "userdoc": {
    "kind": "user",
    "methods": {
      "balanceOf(address)": {
        "notice": "shows the amount of tokens that are available to be transferred, after fees are deducted"
      },
      "balanceOfWithFee(address)": {
        "notice": "See {IERC20-balanceOf}."
      },
      "burn(address,uint256)": {
        "notice": "burns tokens, meaning that less real-world assets are now represented by the token"
      },
      "feeLastPaid(address)": {
        "notice": "returns the last time the fee was deducted for the given account"
      },
      "mint(uint256)": {
        "notice": "mints new tokens into circulation, meaning that more real-world assets are now represented by the token"
      }
    },
    "version": 1
  },
  "storageLayout": {
    "storage": [],
    "types": null
  }
}