{
  "address": "0x3d81Ef3686897996ffA0b78178e9403C4852705F",
  "abi": [
    {
      "inputs": [
        {
          "internalType": "string",
          "name": "name_",
          "type": "string"
        },
        {
          "internalType": "string",
          "name": "symbol_",
          "type": "string"
        },
        {
          "internalType": "uint8",
          "name": "decimals_",
          "type": "uint8"
        },
        {
          "internalType": "uint256",
          "name": "feeRate_",
          "type": "uint256"
        },
        {
          "internalType": "uint256",
          "name": "maxFee_",
          "type": "uint256"
        },
        {
          "internalType": "uint256",
          "name": "delayFeeChange_",
          "type": "uint256"
        },
        {
          "internalType": "address",
          "name": "feeCollectionTreasury_",
          "type": "address"
        },
        {
          "internalType": "address",
          "name": "minter_",
          "type": "address"
        }
      ],
      "stateMutability": "nonpayable",
      "type": "constructor"
    },
    {
      "anonymous": false,
      "inputs": [
        {
          "indexed": true,
          "internalType": "address",
          "name": "owner",
          "type": "address"
        },
        {
          "indexed": true,
          "internalType": "address",
          "name": "spender",
          "type": "address"
        },
        {
          "indexed": false,
          "internalType": "uint256",
          "name": "value",
          "type": "uint256"
        }
      ],
      "name": "Approval",
      "type": "event"
    },
    {
      "anonymous": false,
      "inputs": [
        {
          "indexed": false,
          "internalType": "uint256",
          "name": "newFee",
          "type": "uint256"
        }
      ],
      "name": "FeeChanged",
      "type": "event"
    },
    {
      "anonymous": false,
      "inputs": [
        {
          "indexed": false,
          "internalType": "address",
          "name": "oracle",
          "type": "address"
        }
      ],
      "name": "OracleAddressChanged",
      "type": "event"
    },
    {
      "anonymous": false,
      "inputs": [
        {
          "indexed": true,
          "internalType": "address",
          "name": "previousOwner",
          "type": "address"
        },
        {
          "indexed": true,
          "internalType": "address",
          "name": "newOwner",
          "type": "address"
        }
      ],
      "name": "OwnershipTransferStarted",
      "type": "event"
    },
    {
      "anonymous": false,
      "inputs": [
        {
          "indexed": true,
          "internalType": "address",
          "name": "previousOwner",
          "type": "address"
        },
        {
          "indexed": true,
          "internalType": "address",
          "name": "newOwner",
          "type": "address"
        }
      ],
      "name": "OwnershipTransferred",
      "type": "event"
    },
    {
      "anonymous": false,
      "inputs": [
        {
          "indexed": true,
          "internalType": "address",
          "name": "from",
          "type": "address"
        },
        {
          "indexed": true,
          "internalType": "address",
          "name": "to",
          "type": "address"
        },
        {
          "indexed": false,
          "internalType": "uint256",
          "name": "value",
          "type": "uint256"
        }
      ],
      "name": "Transfer",
      "type": "event"
    },
    {
      "inputs": [],
      "name": "acceptOwnership",
      "outputs": [],
      "stateMutability": "nonpayable",
      "type": "function"
    },
    {
      "inputs": [
        {
          "internalType": "address",
          "name": "owner",
          "type": "address"
        },
        {
          "internalType": "address",
          "name": "spender",
          "type": "address"
        }
      ],
      "name": "allowance",
      "outputs": [
        {
          "internalType": "uint256",
          "name": "",
          "type": "uint256"
        }
      ],
      "stateMutability": "view",
      "type": "function"
    },
    {
      "inputs": [
        {
          "internalType": "address",
          "name": "spender",
          "type": "address"
        },
        {
          "internalType": "uint256",
          "name": "amount",
          "type": "uint256"
        }
      ],
      "name": "approve",
      "outputs": [
        {
          "internalType": "bool",
          "name": "",
          "type": "bool"
        }
      ],
      "stateMutability": "nonpayable",
      "type": "function"
    },
    {
      "inputs": [
        {
          "internalType": "address",
          "name": "account",
          "type": "address"
        }
      ],
      "name": "balanceOf",
      "outputs": [
        {
          "internalType": "uint256",
          "name": "",
          "type": "uint256"
        }
      ],
      "stateMutability": "view",
      "type": "function"
    },
    {
      "inputs": [
        {
          "internalType": "address",
          "name": "account",
          "type": "address"
        }
      ],
      "name": "balanceOfWithFee",
      "outputs": [
        {
          "internalType": "uint256",
          "name": "",
          "type": "uint256"
        }
      ],
      "stateMutability": "view",
      "type": "function"
    },
    {
      "inputs": [
        {
          "internalType": "address",
          "name": "account",
          "type": "address"
        },
        {
          "internalType": "uint256",
          "name": "amount",
          "type": "uint256"
        }
      ],
      "name": "burn",
      "outputs": [
        {
          "internalType": "uint256",
          "name": "",
          "type": "uint256"
        }
      ],
      "stateMutability": "nonpayable",
      "type": "function"
    },
    {
      "inputs": [
        {
          "internalType": "address[]",
          "name": "accounts",
          "type": "address[]"
        }
      ],
      "name": "collectFees",
      "outputs": [],
      "stateMutability": "nonpayable",
      "type": "function"
    },
    {
      "inputs": [],
      "name": "decimals",
      "outputs": [
        {
          "internalType": "uint8",
          "name": "",
          "type": "uint8"
        }
      ],
      "stateMutability": "view",
      "type": "function"
    },
    {
      "inputs": [
        {
          "internalType": "address",
          "name": "spender",
          "type": "address"
        },
        {
          "internalType": "uint256",
          "name": "subtractedValue",
          "type": "uint256"
        }
      ],
      "name": "decreaseAllowance",
      "outputs": [
        {
          "internalType": "bool",
          "name": "",
          "type": "bool"
        }
      ],
      "stateMutability": "nonpayable",
      "type": "function"
    },
    {
      "inputs": [],
      "name": "feeChangeMinDelay",
      "outputs": [
        {
          "internalType": "uint256",
          "name": "",
          "type": "uint256"
        }
      ],
      "stateMutability": "view",
      "type": "function"
    },
    {
      "inputs": [
        {
          "internalType": "address",
          "name": "account",
          "type": "address"
        }
      ],
      "name": "feeLastPaid",
      "outputs": [
        {
          "internalType": "uint256",
          "name": "",
          "type": "uint256"
        }
      ],
      "stateMutability": "view",
      "type": "function"
    },
    {
      "inputs": [],
      "name": "feeRate",
      "outputs": [
        {
          "internalType": "uint256",
          "name": "",
          "type": "uint256"
        }
      ],
      "stateMutability": "view",
      "type": "function"
    },
    {
      "inputs": [
        {
          "internalType": "address",
          "name": "spender",
          "type": "address"
        },
        {
          "internalType": "uint256",
          "name": "addedValue",
          "type": "uint256"
        }
      ],
      "name": "increaseAllowance",
      "outputs": [
        {
          "internalType": "bool",
          "name": "",
          "type": "bool"
        }
      ],
      "stateMutability": "nonpayable",
      "type": "function"
    },
    {
      "inputs": [],
      "name": "lastFeeChange",
      "outputs": [
        {
          "internalType": "uint256",
          "name": "",
          "type": "uint256"
        }
      ],
      "stateMutability": "view",
      "type": "function"
    },
    {
      "inputs": [],
      "name": "maxFee",
      "outputs": [
        {
          "internalType": "uint256",
          "name": "",
          "type": "uint256"
        }
      ],
      "stateMutability": "view",
      "type": "function"
    },
    {
      "inputs": [
        {
          "internalType": "uint256",
          "name": "amount",
          "type": "uint256"
        }
      ],
      "name": "mint",
      "outputs": [],
      "stateMutability": "nonpayable",
      "type": "function"
    },
    {
      "inputs": [],
      "name": "name",
      "outputs": [
        {
          "internalType": "string",
          "name": "",
          "type": "string"
        }
      ],
      "stateMutability": "view",
      "type": "function"
    },
    {
      "inputs": [],
      "name": "oracle",
      "outputs": [
        {
          "internalType": "address",
          "name": "",
          "type": "address"
        }
      ],
      "stateMutability": "view",
      "type": "function"
    },
    {
      "inputs": [],
      "name": "owner",
      "outputs": [
        {
          "internalType": "address",
          "name": "",
          "type": "address"
        }
      ],
      "stateMutability": "view",
      "type": "function"
    },
    {
      "inputs": [],
      "name": "pendingOwner",
      "outputs": [
        {
          "internalType": "address",
          "name": "",
          "type": "address"
        }
      ],
      "stateMutability": "view",
      "type": "function"
    },
    {
      "inputs": [],
      "name": "renounceOwnership",
      "outputs": [],
      "stateMutability": "nonpayable",
      "type": "function"
    },
    {
      "inputs": [
        {
          "internalType": "address",
          "name": "newAddress",
          "type": "address"
        }
      ],
      "name": "setFeeCollectionAddress",
      "outputs": [],
      "stateMutability": "nonpayable",
      "type": "function"
    },
    {
      "inputs": [
        {
          "internalType": "uint256",
          "name": "newFee_",
          "type": "uint256"
        }
      ],
      "name": "setFeeRate",
      "outputs": [],
      "stateMutability": "nonpayable",
      "type": "function"
    },
    {
      "inputs": [
        {
          "internalType": "address",
          "name": "newAddress",
          "type": "address"
        }
      ],
      "name": "setMinterRole",
      "outputs": [],
      "stateMutability": "nonpayable",
      "type": "function"
    },
    {
      "inputs": [
        {
          "internalType": "address",
          "name": "oracleAddress",
          "type": "address"
        }
      ],
      "name": "setOracleAddress",
      "outputs": [
        {
          "internalType": "bool",
          "name": "",
          "type": "bool"
        }
      ],
      "stateMutability": "nonpayable",
      "type": "function"
    },
    {
      "inputs": [],
      "name": "symbol",
      "outputs": [
        {
          "internalType": "string",
          "name": "",
          "type": "string"
        }
      ],
      "stateMutability": "view",
      "type": "function"
    },
    {
      "inputs": [],
      "name": "totalSupply",
      "outputs": [
        {
          "internalType": "uint256",
          "name": "",
          "type": "uint256"
        }
      ],
      "stateMutability": "view",
      "type": "function"
    },
    {
      "inputs": [
        {
          "internalType": "address",
          "name": "to",
          "type": "address"
        },
        {
          "internalType": "uint256",
          "name": "amount",
          "type": "uint256"
        }
      ],
      "name": "transfer",
      "outputs": [
        {
          "internalType": "bool",
          "name": "",
          "type": "bool"
        }
      ],
      "stateMutability": "nonpayable",
      "type": "function"
    },
    {
      "inputs": [
        {
          "internalType": "address",
          "name": "to",
          "type": "address"
        }
      ],
      "name": "transferAll",
      "outputs": [
        {
          "internalType": "bool",
          "name": "",
          "type": "bool"
        }
      ],
      "stateMutability": "nonpayable",
      "type": "function"
    },
    {
      "inputs": [
        {
          "internalType": "address",
          "name": "from",
          "type": "address"
        },
        {
          "internalType": "address",
          "name": "to",
          "type": "address"
        },
        {
          "internalType": "uint256",
          "name": "amount",
          "type": "uint256"
        }
      ],
      "name": "transferFrom",
      "outputs": [
        {
          "internalType": "bool",
          "name": "",
          "type": "bool"
        }
      ],
      "stateMutability": "nonpayable",
      "type": "function"
    },
    {
      "inputs": [
        {
          "internalType": "address",
          "name": "newOwner",
          "type": "address"
        }
      ],
      "name": "transferOwnership",
      "outputs": [],
      "stateMutability": "nonpayable",
      "type": "function"
    }
  ],
  "transactionHash": "0x0ff19f22aea8df2c7deba5914ae0bbcee3503bf083618f79c36336ec933594ff",
  "args": [
    "Denario",
    "Den",
    "8",
    "10000000000000000",
    "100000000000000000",
    "31536000",
    "0x3b1d8e2d17fD09980F8287f92Fe9442A1411e1b9",
    "0x3b1d8e2d17fD09980F8287f92Fe9442A1411e1b9"
  ],
  "numDeployments": 2,
  "solcInputHash": "49967803aa9b7a9eb233cf7410cb9153",
  "bytecode": "0x6101006040523480156200001257600080fd5b50604051620027a1380380620027a1833981016040819052620000359162000506565b620000403362000296565b83851115620000b15760405162461bcd60e51b815260206004820152603260248201527f455243323057697468466565733a2066656520726174652063616e6e6f742062604482015271652067726561746572207468616e2031302560701b60648201526084015b60405180910390fd5b6001600160a01b03821662000131576040805162461bcd60e51b81526020600482015260248101919091527f455243323057697468466565733a2066656520636f6c6c656374696f6e20616460448201527f64726573732063616e6e6f7420626520746865207a65726f20616464726573736064820152608401620000a8565b6001600160a01b038116620001af5760405162461bcd60e51b815260206004820152603860248201527f455243323057697468466565733a206d696e746572206164647265737320636160448201527f6e6e6f7420626520746865207a65726f206164647265737300000000000000006064820152608401620000a8565b8751620001c49060059060208b019062000390565b508651620001da9060069060208a019062000390565b507fff0000000000000000000000000000000000000000000000000000000000000060f887901b16608052600c85905542600d556200021b86600a62000617565b6200022b906301e133806200070f565b60e05260a084905260c0839052600a80546001600160a01b038085166001600160a01b03199283168117909355600b8054918516919092161790556200027190620002c0565b600b5462000288906001600160a01b0316620002c0565b50505050505050506200079a565b600180546001600160a01b0319169055620002bd8162000340602090811b620011de17901c565b50565b6000546001600160a01b031633146200031c5760405162461bcd60e51b815260206004820181905260248201527f4f776e61626c653a2063616c6c6572206973206e6f7420746865206f776e65726044820152606401620000a8565b6001600160a01b03166000908152600960205260409020805460ff19166001179055565b600080546001600160a01b038381166001600160a01b0319831681178455604051919092169283917f8be0079c531659141344cd1fd0a4f28419497f9722a3daafe3b4186f6b6457e09190a35050565b8280546200039e9062000731565b90600052602060002090601f016020900481019282620003c257600085556200040d565b82601f10620003dd57805160ff19168380011785556200040d565b828001600101855582156200040d579182015b828111156200040d578251825591602001919060010190620003f0565b506200041b9291506200041f565b5090565b5b808211156200041b576000815560010162000420565b80516001600160a01b03811681146200044e57600080fd5b919050565b600082601f83011262000464578081fd5b81516001600160401b038082111562000481576200048162000784565b604051601f8301601f19908116603f01168101908282118183101715620004ac57620004ac62000784565b81604052838152602092508683858801011115620004c8578485fd5b8491505b83821015620004eb5785820183015181830184015290820190620004cc565b83821115620004fc57848385830101525b9695505050505050565b600080600080600080600080610100898b03121562000523578384fd5b88516001600160401b03808211156200053a578586fd5b620005488c838d0162000453565b995060208b01519150808211156200055e578586fd5b506200056d8b828c0162000453565b975050604089015160ff8116811462000584578485fd5b80965050606089015194506080890151935060a08901519250620005ab60c08a0162000436565b9150620005bb60e08a0162000436565b90509295985092959890939650565b80825b6001808611620005de57506200060e565b818704821115620005f357620005f36200076e565b808616156200060157918102915b9490941c938002620005cd565b94509492505050565b60006200062b60001960ff85168462000632565b9392505050565b60008262000643575060016200062b565b8162000652575060006200062b565b81600181146200066b57600281146200067657620006aa565b60019150506200062b565b60ff8411156200068a576200068a6200076e565b6001841b915084821115620006a357620006a36200076e565b506200062b565b5060208310610133831016604e8410600b8410161715620006e2575081810a83811115620006dc57620006dc6200076e565b6200062b565b620006f18484846001620005ca565b8086048211156200070657620007066200076e565b02949350505050565b60008160001904831182151516156200072c576200072c6200076e565b500290565b600181811c908216806200074657607f821691505b602082108114156200076857634e487b7160e01b600052602260045260246000fd5b50919050565b634e487b7160e01b600052601160045260246000fd5b634e487b7160e01b600052604160045260246000fd5b60805160f81c60a05160c05160e051611fbc620007e5600039600061191101526000818161026101526106be0152600081816101ef0152610628015260006102a30152611fbc6000f3fe608060405234801561001057600080fd5b50600436106101e55760003560e01c806379ba50971161010f578063a3a7e7f3116100a2578063ceee577e11610071578063ceee577e14610436578063dd62ed3e1461045f578063e30c397814610498578063f2fde38b146104a9576101e5565b8063a3a7e7f3146103ea578063a457c2d7146103fd578063a9059cbb14610410578063b8cc76fb14610423576101e5565b806395d89b41116100de57806395d89b41146103b3578063978bbdb9146103bb5780639dc29fac146103c4578063a0712d68146103d7576101e5565b806379ba50971461035c5780637dc0d1d0146103645780638da5cb5b1461038f578063945d1229146103a0576101e5565b8063395093511161018757806358c0f7291161015657806358c0f72914610325578063695056881461033857806370a0823114610341578063715018a614610354576101e5565b806339509351146102d757806345596e2e146102ea5780634bcc1aef146102ff5780634c69c00f14610312576101e5565b8063142a1515116101c3578063142a15151461025c57806318160ddd1461028357806323b872dd1461028b578063313ce5671461029e576101e5565b806301f59d16146101ea57806306fdde0314610224578063095ea7b314610239575b600080fd5b6102117f000000000000000000000000000000000000000000000000000000000000000081565b6040519081526020015b60405180910390f35b61022c6104bc565b60405161021b9190611e5b565b61024c610247366004611d92565b61054a565b604051901515815260200161021b565b6102117f000000000000000000000000000000000000000000000000000000000000000081565b600454610211565b61024c610299366004611d57565b610562565b6102c57f000000000000000000000000000000000000000000000000000000000000000081565b60405160ff909116815260200161021b565b61024c6102e5366004611d92565b610588565b6102fd6102f8366004611e2b565b6105c7565b005b61021161030d366004611d0b565b61079d565b61024c610320366004611d0b565b6107bc565b6102fd610333366004611dbb565b6108f9565b610211600d5481565b61021161034f366004611d0b565b610959565b6102fd61098c565b6102fd6109f2565b600754610377906001600160a01b031681565b6040516001600160a01b03909116815260200161021b565b6000546001600160a01b0316610377565b6102fd6103ae366004611d0b565b610a80565b61022c610b9c565b610211600c5481565b6102116103d2366004611d92565b610ba9565b6102fd6103e5366004611e2b565b610d2c565b61024c6103f8366004611d0b565b610f16565b61024c61040b366004611d92565b610f30565b61024c61041e366004611d92565b610fe5565b6102fd610431366004611d0b565b610ff3565b610211610444366004611d0b565b6001600160a01b031660009081526008602052604090205490565b61021161046d366004611d25565b6001600160a01b03918216600090815260036020908152604080832093909416825291909152205490565b6001546001600160a01b0316610377565b6102fd6104b7366004611d0b565b61110f565b600580546104c990611f1a565b80601f01602080910402602001604051908101604052809291908181526020018280546104f590611f1a565b80156105425780601f1061051757610100808354040283529160200191610542565b820191906000526020600020905b81548152906001019060200180831161052557829003601f168201915b505050505081565b60003361055881858561123b565b5060019392505050565b600033610570858285611394565b61057b858585611426565b60019150505b9392505050565b3360008181526003602090815260408083206001600160a01b038716845290915281205490919061055890829086906105c2908790611ecc565b61123b565b6000546001600160a01b031633146106265760405162461bcd60e51b815260206004820181905260248201527f4f776e61626c653a2063616c6c6572206973206e6f7420746865206f776e657260448201526064015b60405180910390fd5b7f00000000000000000000000000000000000000000000000000000000000000008111156106bc5760405162461bcd60e51b815260206004820152602e60248201527f455243323057697468466565733a206665652063616e6e6f74206265206d6f7260448201527f65207468616e206d617820666565000000000000000000000000000000000000606482015260840161061d565b7f0000000000000000000000000000000000000000000000000000000000000000600d54426106eb9190611f03565b1161075e5760405162461bcd60e51b815260206004820152602a60248201527f455243323057697468466565733a20666565206368616e67652064656c61792060448201527f6e6f742070617373656400000000000000000000000000000000000000000000606482015260840161061d565b42600d55600c8190556040518181527f6bbc57480a46553fa4d156ce702beef5f3ad66303b0ed1a5d4cb44966c6584c39060200160405180910390a150565b6001600160a01b0381166000908152600260205260409020545b919050565b600080546001600160a01b031633146108175760405162461bcd60e51b815260206004820181905260248201527f4f776e61626c653a2063616c6c6572206973206e6f7420746865206f776e6572604482015260640161061d565b6001600160a01b0382166108935760405162461bcd60e51b815260206004820152602c60248201527f455243323057697468466565733a206f7261636c65206164647265737320636160448201527f6e6e6f74206265207a65726f0000000000000000000000000000000000000000606482015260840161061d565b6007805473ffffffffffffffffffffffffffffffffffffffff19166001600160a01b0384169081179091556040519081527fe420b96152542f57ce3d2d26d939a3c2860a82361801ad0a970a3badc32d538e9060200160405180910390a1506001919050565b60005b818110156109545761094183838381811061092757634e487b7160e01b600052603260045260246000fd5b905060200201602081019061093c9190611d0b565b61176f565b508061094c81611f55565b9150506108fc565b505050565b60008061096583611846565b6001600160a01b038416600090815260026020526040902054909150610581908290611f03565b6000546001600160a01b031633146109e65760405162461bcd60e51b815260206004820181905260248201527f4f776e61626c653a2063616c6c6572206973206e6f7420746865206f776e6572604482015260640161061d565b6109f0600061193d565b565b60015433906001600160a01b03168114610a745760405162461bcd60e51b815260206004820152602960248201527f4f776e61626c6532537465703a2063616c6c6572206973206e6f74207468652060448201527f6e6577206f776e65720000000000000000000000000000000000000000000000606482015260840161061d565b610a7d8161193d565b50565b6000546001600160a01b03163314610ada5760405162461bcd60e51b815260206004820181905260248201527f4f776e61626c653a2063616c6c6572206973206e6f7420746865206f776e6572604482015260640161061d565b6001600160a01b038116610b565760405162461bcd60e51b815260206004820152603060248201527f455243323057697468466565733a20636f6c6c656374696f6e2061646472657360448201527f732063616e6e6f74206265207a65726f00000000000000000000000000000000606482015260840161061d565b600b54610b6b906001600160a01b0316611963565b600b805473ffffffffffffffffffffffffffffffffffffffff19166001600160a01b038316179055610a7d816119eb565b600680546104c990611f1a565b600b546000906001600160a01b03163314610c2c5760405162461bcd60e51b815260206004820152603160248201527f455243323057697468466565733a206f6e6c79206d696e7465722063616e206360448201527f616c6c20746869732066756e6374696f6e000000000000000000000000000000606482015260840161061d565b6001600160a01b038316610ca85760405162461bcd60e51b815260206004820152602760248201527f45524332303a2063616e2774206275726e2066726f6d20746865207a65726f2060448201527f6164647265737300000000000000000000000000000000000000000000000000606482015260840161061d565b336001600160a01b0384168114610cc457610cc4848285611394565b6000610ccf8561176f565b9050600081118015610cf857506001600160a01b03851660009081526002602052604090205484115b15610d19576001600160a01b03851660009081526002602052604090205493505b610d238585611a69565b50919392505050565b600b546001600160a01b03163314610dac5760405162461bcd60e51b815260206004820152603160248201527f455243323057697468466565733a206f6e6c79206d696e7465722063616e206360448201527f616c6c20746869732066756e6374696f6e000000000000000000000000000000606482015260840161061d565b6007546001600160a01b031615610f0057600754604080517fd2c4693200000000000000000000000000000000000000000000000000000000815290516000926001600160a01b03169163d2c46932916004808301926020929190829003018186803b158015610e1b57600080fd5b505afa158015610e2f573d6000803e3d6000fd5b505050506040513d601f19601f82011682018060405250810190610e539190611e43565b905060045482610e639190611ecc565b811015610efe5760405162461bcd60e51b815260206004820152604360248201527f455243323057697468466565733a206e657720746f74616c20737570706c792060448201527f616d6f756e7420776f756c642065786365656420726573657276652062616c6160648201527f6e63650000000000000000000000000000000000000000000000000000000000608482015260a40161061d565b505b600b54610a7d906001600160a01b031682611b6a565b60003381610f2382610959565b9050610558828583611426565b3360008181526003602090815260408083206001600160a01b038716845290915281205490919083811015610fcd5760405162461bcd60e51b815260206004820152602560248201527f45524332303a2064656372656173656420616c6c6f77616e63652062656c6f7760448201527f207a65726f000000000000000000000000000000000000000000000000000000606482015260840161061d565b610fda828686840361123b565b506001949350505050565b600033610558818585611426565b6000546001600160a01b0316331461104d5760405162461bcd60e51b815260206004820181905260248201527f4f776e61626c653a2063616c6c6572206973206e6f7420746865206f776e6572604482015260640161061d565b6001600160a01b0381166110c95760405162461bcd60e51b815260206004820152603060248201527f455243323057697468466565733a20636f6c6c656374696f6e2061646472657360448201527f732063616e6e6f74206265207a65726f00000000000000000000000000000000606482015260840161061d565b600a546110de906001600160a01b0316611963565b600a805473ffffffffffffffffffffffffffffffffffffffff19166001600160a01b038316179055610a7d816119eb565b6000546001600160a01b031633146111695760405162461bcd60e51b815260206004820181905260248201527f4f776e61626c653a2063616c6c6572206973206e6f7420746865206f776e6572604482015260640161061d565b6001805473ffffffffffffffffffffffffffffffffffffffff19166001600160a01b0383169081179091556111a66000546001600160a01b031690565b6001600160a01b03167f38d16b8cac22d99fc7c124b9cd0de2d3fa1faef420bfe791d8c362d765e2270060405160405180910390a350565b600080546001600160a01b0383811673ffffffffffffffffffffffffffffffffffffffff19831681178455604051919092169283917f8be0079c531659141344cd1fd0a4f28419497f9722a3daafe3b4186f6b6457e09190a35050565b6001600160a01b0383166112b65760405162461bcd60e51b8152602060048201526024808201527f45524332303a20617070726f76652066726f6d20746865207a65726f2061646460448201527f7265737300000000000000000000000000000000000000000000000000000000606482015260840161061d565b6001600160a01b0382166113325760405162461bcd60e51b815260206004820152602260248201527f45524332303a20617070726f766520746f20746865207a65726f20616464726560448201527f7373000000000000000000000000000000000000000000000000000000000000606482015260840161061d565b6001600160a01b0383811660008181526003602090815260408083209487168084529482529182902085905590518481527f8c5be1e5ebec7d5bd14f71427d1e84f3dd0314c0f7b2291e5b200ac8c7c3b92591015b60405180910390a3505050565b6001600160a01b03838116600090815260036020908152604080832093861683529290522054600019811461142057818110156114135760405162461bcd60e51b815260206004820152601d60248201527f45524332303a20696e73756666696369656e7420616c6c6f77616e6365000000604482015260640161061d565b611420848484840361123b565b50505050565b6001600160a01b0383166114a25760405162461bcd60e51b815260206004820152602560248201527f45524332303a207472616e736665722066726f6d20746865207a65726f20616460448201527f6472657373000000000000000000000000000000000000000000000000000000606482015260840161061d565b6001600160a01b03821661151e5760405162461bcd60e51b815260206004820152602360248201527f45524332303a207472616e7366657220746f20746865207a65726f206164647260448201527f6573730000000000000000000000000000000000000000000000000000000000606482015260840161061d565b600081116115945760405162461bcd60e51b815260206004820152602d60248201527f45524332303a207472616e7366657220616d6f756e74206d757374206265206760448201527f726561746572207468616e203000000000000000000000000000000000000000606482015260840161061d565b816001600160a01b0316836001600160a01b0316141561161c5760405162461bcd60e51b815260206004820152602360248201527f45524332303a2073656c66207472616e73666572206973206e6f7420616c6c6f60448201527f7765640000000000000000000000000000000000000000000000000000000000606482015260840161061d565b6116258361176f565b506001600160a01b0383166000908152600260205260409020548111156116b45760405162461bcd60e51b815260206004820152602660248201527f45524332303a207472616e7366657220616d6f756e742065786365656473206260448201527f616c616e63650000000000000000000000000000000000000000000000000000606482015260840161061d565b6001600160a01b0383166000908152600260205260409020546116d8908290611f03565b6001600160a01b0384166000908152600260205260409020556116fa8261176f565b506001600160a01b03821660009081526002602052604081208054839290611723908490611ecc565b92505081905550816001600160a01b0316836001600160a01b03167fddf252ad1be2c89b69c2b068fc378daa952ba7f163c4a11628f55a4df523b3ef8360405161138791815260200190565b60008061177b83611846565b90508015611825576001600160a01b038316600090815260026020526040812080548392906117ab908490611f03565b9091555050600a546001600160a01b0316600090815260026020526040812080548392906117da908490611ecc565b9091555050600a546040518281526001600160a01b03918216918516907fddf252ad1be2c89b69c2b068fc378daa952ba7f163c4a11628f55a4df523b3ef9060200160405180910390a35b6001600160a01b039290921660009081526008602052604090204290555090565b6001600160a01b038116600090815260026020526040812054158061188357506001600160a01b03821660009081526009602052604090205460ff165b15611890575060006107b7565b600d546001600160a01b0383166000908152600860205260408120549091106118bb57600d546118d5565b6001600160a01b0383166000908152600860205260409020545b905060006118e38242611f03565b9050611935600c54826118f69190611ee4565b6001600160a01b0386166000908152600260205260409020547f0000000000000000000000000000000000000000000000000000000000000000611bf3565b949350505050565b6001805473ffffffffffffffffffffffffffffffffffffffff19169055610a7d816111de565b6000546001600160a01b031633146119bd5760405162461bcd60e51b815260206004820181905260248201527f4f776e61626c653a2063616c6c6572206973206e6f7420746865206f776e6572604482015260640161061d565b6001600160a01b03166000908152600960209081526040808320805460ff1916905560089091529020429055565b6000546001600160a01b03163314611a455760405162461bcd60e51b815260206004820181905260248201527f4f776e61626c653a2063616c6c6572206973206e6f7420746865206f776e6572604482015260640161061d565b6001600160a01b03166000908152600960205260409020805460ff19166001179055565b6001600160a01b03821660009081526002602052604090205481811015611af85760405162461bcd60e51b815260206004820152602260248201527f45524332303a206275726e20616d6f756e7420657863656564732062616c616e60448201527f6365000000000000000000000000000000000000000000000000000000000000606482015260840161061d565b6001600160a01b0383166000908152600260205260408120838303905560048054849290611b27908490611f03565b90915550506040518281526000906001600160a01b038516907fddf252ad1be2c89b69c2b068fc378daa952ba7f163c4a11628f55a4df523b3ef90602001611387565b8060046000828254611b7c9190611ecc565b90915550506001600160a01b03821660009081526002602052604081208054839290611ba9908490611ecc565b90915550506040518181526001600160a01b038316906000907fddf252ad1be2c89b69c2b068fc378daa952ba7f163c4a11628f55a4df523b3ef9060200160405180910390a35050565b600080806000198587098587029250828110838203039150508060001415611c3c57838281611c3257634e487b7160e01b600052601260045260246000fd5b0492505050610581565b808411611c8b5760405162461bcd60e51b815260206004820152601560248201527f4d6174683a206d756c446976206f766572666c6f770000000000000000000000604482015260640161061d565b60008486880960026001871981018816978890046003810283188082028403028082028403028082028403028082028403028082028403029081029092039091026000889003889004909101858311909403939093029303949094049190911702949350505050565b80356001600160a01b03811681146107b757600080fd5b600060208284031215611d1c578081fd5b61058182611cf4565b60008060408385031215611d37578081fd5b611d4083611cf4565b9150611d4e60208401611cf4565b90509250929050565b600080600060608486031215611d6b578081fd5b611d7484611cf4565b9250611d8260208501611cf4565b9150604084013590509250925092565b60008060408385031215611da4578182fd5b611dad83611cf4565b946020939093013593505050565b60008060208385031215611dcd578182fd5b823567ffffffffffffffff80821115611de4578384fd5b818501915085601f830112611df7578384fd5b813581811115611e05578485fd5b8660208260051b8501011115611e19578485fd5b60209290920196919550909350505050565b600060208284031215611e3c578081fd5b5035919050565b600060208284031215611e54578081fd5b5051919050565b6000602080835283518082850152825b81811015611e8757858101830151858201604001528201611e6b565b81811115611e985783604083870101525b50601f017fffffffffffffffffffffffffffffffffffffffffffffffffffffffffffffffe016929092016040019392505050565b60008219821115611edf57611edf611f70565b500190565b6000816000190483118215151615611efe57611efe611f70565b500290565b600082821015611f1557611f15611f70565b500390565b600181811c90821680611f2e57607f821691505b60208210811415611f4f57634e487b7160e01b600052602260045260246000fd5b50919050565b6000600019821415611f6957611f69611f70565b5060010190565b634e487b7160e01b600052601160045260246000fdfea264697066735822122033b5d4ea04cb7001109b767182f1372ee6c0345f7251613eb2953590d50dad2964736f6c63430008030033",
  "devdoc": {
    "kind": "dev",
    "methods": {
      "acceptOwnership()": {
        "details": "The new owner accepts the ownership transfer."
      },
      "allowance(address,address)": {
        "details": "See {IERC20-allowance}."
      },
      "approve(address,uint256)": {
        "details": "See {IERC20-approve}. NOTE: If `amount` is the maximum `uint256`, the allowance is not updated on `transferFrom`. This is semantically equivalent to an infinite approval. Requirements: - `spender` cannot be the zero address."
      },
      "burn(address,uint256)": {
        "details": "only the minter can burn tokens, with the approval of the owner this is used in the process of redeeming tokens for real-world assets if the owner has not enough balance to burn + pay fees, the fee will be paid from the burn amount",
        "params": {
          "account": "the account to burn tokens from",
          "amount": "the amount of tokens to burn"
        }
      },
      "decreaseAllowance(address,uint256)": {
        "details": "Atomically decreases the allowance granted to `spender` by the caller. This is an alternative to {approve} that can be used as a mitigation for problems described in {IERC20-approve}. Emits an {Approval} event indicating the updated allowance. Requirements: - `spender` cannot be the zero address. - `spender` must have allowance for the caller of at least `subtractedValue`."
      },
      "feeLastPaid(address)": {
        "details": "returns 0 if the account has never had a fee deducted -> never held tokens"
      },
      "increaseAllowance(address,uint256)": {
        "details": "Atomically increases the allowance granted to `spender` by the caller. This is an alternative to {approve} that can be used as a mitigation for problems described in {IERC20-approve}. Emits an {Approval} event indicating the updated allowance. Requirements: - `spender` cannot be the zero address."
      },
      "mint(uint256)": {
        "details": "only the minter can mint new tokens"
      },
      "owner()": {
        "details": "Returns the address of the current owner."
      },
      "pendingOwner()": {
        "details": "Returns the address of the pending owner."
      },
      "renounceOwnership()": {
        "details": "Leaves the contract without owner. It will not be possible to call `onlyOwner` functions anymore. Can only be called by the current owner. NOTE: Renouncing ownership will leave the contract without an owner, thereby removing any functionality that is only available to the owner."
      },
      "setFeeCollectionAddress(address)": {
        "details": "Set the address that will receive all fees collected",
        "params": {
          "newAddress": "The address to receive fees"
        }
      },
      "setMinterRole(address)": {
        "details": "Set the address that will mint new tokens",
        "params": {
          "newAddress": "The address to mint tokens"
        }
      },
      "setOracleAddress(address)": {
        "details": "Set the LockedGoldOracle address",
        "params": {
          "oracleAddress": "The address for oracle"
        },
        "returns": {
          "_0": "An bool representing successfully changing oracle address"
        }
      },
      "totalSupply()": {
        "details": "See {IERC20-totalSupply}."
      },
      "transfer(address,uint256)": {
        "details": "See {IERC20-transfer}. Requirements: - `to` cannot be the zero address. - the caller must have a balance of at least `amount`."
      },
      "transferAll(address)": {
        "details": "Utility function to transfer all tokens from the owner to another, taking into account the owed fees so the balance of the owner will be 0 after the transfer."
      },
      "transferFrom(address,address,uint256)": {
        "details": "See {IERC20-transferFrom}. Emits an {Approval} event indicating the updated allowance. This is not required by the EIP. See the note at the beginning of {ERC20}. NOTE: Does not update the allowance if the current allowance is the maximum `uint256`. Requirements: - `from` and `to` cannot be the zero address. - `from` must have a balance of at least `amount`. - the caller must have allowance for ``from``'s tokens of at least `amount`."
      },
      "transferOwnership(address)": {
        "details": "Starts the ownership transfer of the contract to a new account. Replaces the pending transfer if there is one. Can only be called by the current owner."
      }
    },
    "stateVariables": {
      "decimals": {
        "details": "Returns the decimals places of the token."
      },
      "feeRate": {
        "details": "fees are sent to the feeCollectionAddress, collection happens at every transfer or by calling the collectFees function _feeExempt addresses are not subject to fees"
      },
      "name": {
        "details": "Returns the name of the token."
      },
      "symbol": {
        "details": "Returns the symbol of the token."
      }
    },
    "version": 1
  },
  "userdoc": {
    "kind": "user",
    "methods": {
      "balanceOf(address)": {
        "notice": "shows the amount of tokens that are available to be transferred, after fees are deducted"
      },
      "balanceOfWithFee(address)": {
        "notice": "See {IERC20-balanceOf}."
      },
      "burn(address,uint256)": {
        "notice": "burns tokens, meaning that less real-world assets are now represented by the token"
      },
      "feeLastPaid(address)": {
        "notice": "returns the last time the fee was deducted for the given account"
      },
      "feeRate()": {
        "notice": "amount of tokens automatically collected from each holder as fee representing the off chain costs of managing the off chain assets represented by the token expressed as how many tokens are collected from 1 token for each year"
      },
      "mint(uint256)": {
        "notice": "mints new tokens into circulation, meaning that more real-world assets are now represented by the token"
      }
    },
    "version": 1
  },
  "storageLayout": {
    "storage": [
      {
        "astId": 9167,
        "contract": "src/ERC20WithFees.sol:ERC20WithFees",
        "label": "_owner",
        "offset": 0,
        "slot": "0",
        "type": "t_address"
      },
      {
        "astId": 9272,
        "contract": "src/ERC20WithFees.sol:ERC20WithFees",
        "label": "_pendingOwner",
        "offset": 0,
        "slot": "1",
        "type": "t_address"
      },
      {
        "astId": 8092,
        "contract": "src/ERC20WithFees.sol:ERC20WithFees",
        "label": "_balances",
        "offset": 0,
        "slot": "2",
        "type": "t_mapping(t_address,t_uint256)"
      },
      {
        "astId": 8098,
        "contract": "src/ERC20WithFees.sol:ERC20WithFees",
        "label": "_allowances",
        "offset": 0,
        "slot": "3",
        "type": "t_mapping(t_address,t_mapping(t_address,t_uint256))"
      },
      {
        "astId": 8100,
        "contract": "src/ERC20WithFees.sol:ERC20WithFees",
        "label": "_totalSupply",
        "offset": 0,
        "slot": "4",
        "type": "t_uint256"
      },
      {
        "astId": 8103,
        "contract": "src/ERC20WithFees.sol:ERC20WithFees",
        "label": "name",
        "offset": 0,
        "slot": "5",
        "type": "t_string_storage"
      },
      {
        "astId": 8106,
        "contract": "src/ERC20WithFees.sol:ERC20WithFees",
        "label": "symbol",
        "offset": 0,
        "slot": "6",
        "type": "t_string_storage"
      },
      {
        "astId": 8111,
        "contract": "src/ERC20WithFees.sol:ERC20WithFees",
        "label": "oracle",
        "offset": 0,
        "slot": "7",
        "type": "t_address"
      },
      {
        "astId": 8115,
        "contract": "src/ERC20WithFees.sol:ERC20WithFees",
        "label": "_feeLastPaid",
        "offset": 0,
        "slot": "8",
        "type": "t_mapping(t_address,t_uint256)"
      },
      {
        "astId": 8119,
        "contract": "src/ERC20WithFees.sol:ERC20WithFees",
        "label": "_feeExempt",
        "offset": 0,
        "slot": "9",
        "type": "t_mapping(t_address,t_bool)"
      },
      {
        "astId": 8121,
        "contract": "src/ERC20WithFees.sol:ERC20WithFees",
        "label": "_feeCollectionAddress",
        "offset": 0,
        "slot": "10",
        "type": "t_address"
      },
      {
        "astId": 8123,
        "contract": "src/ERC20WithFees.sol:ERC20WithFees",
        "label": "_minterAddress",
        "offset": 0,
        "slot": "11",
        "type": "t_address"
      },
      {
        "astId": 8126,
        "contract": "src/ERC20WithFees.sol:ERC20WithFees",
        "label": "feeRate",
        "offset": 0,
        "slot": "12",
        "type": "t_uint256"
      },
      {
        "astId": 8128,
        "contract": "src/ERC20WithFees.sol:ERC20WithFees",
        "label": "lastFeeChange",
        "offset": 0,
        "slot": "13",
        "type": "t_uint256"
      }
    ],
    "types": {
      "t_address": {
        "encoding": "inplace",
        "label": "address",
        "numberOfBytes": "20"
      },
      "t_bool": {
        "encoding": "inplace",
        "label": "bool",
        "numberOfBytes": "1"
      },
      "t_mapping(t_address,t_bool)": {
        "encoding": "mapping",
        "key": "t_address",
        "label": "mapping(address => bool)",
        "numberOfBytes": "32",
        "value": "t_bool"
      },
      "t_mapping(t_address,t_mapping(t_address,t_uint256))": {
        "encoding": "mapping",
        "key": "t_address",
        "label": "mapping(address => mapping(address => uint256))",
        "numberOfBytes": "32",
        "value": "t_mapping(t_address,t_uint256)"
      },
      "t_mapping(t_address,t_uint256)": {
        "encoding": "mapping",
        "key": "t_address",
        "label": "mapping(address => uint256)",
        "numberOfBytes": "32",
        "value": "t_uint256"
      },
      "t_string_storage": {
        "encoding": "bytes",
        "label": "string",
        "numberOfBytes": "32"
      },
      "t_uint256": {
        "encoding": "inplace",
        "label": "uint256",
        "numberOfBytes": "32"
      }
    }
  }
}