{
  "address": "0x8e9Bb3C42cC812AEE39AF90d0dC7cA40B4D2f4C8",
  "abi": [
    {
      "inputs": [
        {
          "internalType": "string",
          "name": "name_",
          "type": "string"
        },
        {
          "internalType": "string",
          "name": "symbol_",
          "type": "string"
        },
        {
          "internalType": "uint8",
          "name": "decimals_",
          "type": "uint8"
        },
        {
          "internalType": "uint256",
          "name": "feeRate_",
          "type": "uint256"
        },
        {
          "internalType": "uint256",
          "name": "maxFee_",
          "type": "uint256"
        },
        {
          "internalType": "address",
          "name": "feeCollector_",
          "type": "address"
        }
      ],
      "stateMutability": "nonpayable",
      "type": "constructor"
    },
    {
      "anonymous": false,
      "inputs": [
        {
          "indexed": true,
          "internalType": "address",
          "name": "owner",
          "type": "address"
        },
        {
          "indexed": true,
          "internalType": "address",
          "name": "spender",
          "type": "address"
        },
        {
          "indexed": false,
          "internalType": "uint256",
          "name": "value",
          "type": "uint256"
        }
      ],
      "name": "Approval",
      "type": "event"
    },
    {
      "anonymous": false,
      "inputs": [
        {
          "indexed": true,
          "internalType": "address",
          "name": "from",
          "type": "address"
        },
        {
          "indexed": false,
          "internalType": "uint256",
          "name": "value",
          "type": "uint256"
        }
      ],
      "name": "FeesPaid",
      "type": "event"
    },
    {
      "anonymous": false,
      "inputs": [
        {
          "indexed": true,
          "internalType": "address",
          "name": "previousOwner",
          "type": "address"
        },
        {
          "indexed": true,
          "internalType": "address",
          "name": "newOwner",
          "type": "address"
        }
      ],
      "name": "OwnershipTransferred",
      "type": "event"
    },
    {
      "anonymous": false,
      "inputs": [
        {
          "indexed": true,
          "internalType": "address",
          "name": "from",
          "type": "address"
        },
        {
          "indexed": true,
          "internalType": "address",
          "name": "to",
          "type": "address"
        },
        {
          "indexed": false,
          "internalType": "uint256",
          "name": "value",
          "type": "uint256"
        }
      ],
      "name": "Transfer",
      "type": "event"
    },
    {
      "inputs": [
        {
          "internalType": "address",
          "name": "owner",
          "type": "address"
        },
        {
          "internalType": "address",
          "name": "spender",
          "type": "address"
        }
      ],
      "name": "allowance",
      "outputs": [
        {
          "internalType": "uint256",
          "name": "",
          "type": "uint256"
        }
      ],
      "stateMutability": "view",
      "type": "function"
    },
    {
      "inputs": [
        {
          "internalType": "address",
          "name": "spender",
          "type": "address"
        },
        {
          "internalType": "uint256",
          "name": "amount",
          "type": "uint256"
        }
      ],
      "name": "approve",
      "outputs": [
        {
          "internalType": "bool",
          "name": "",
          "type": "bool"
        }
      ],
      "stateMutability": "nonpayable",
      "type": "function"
    },
    {
      "inputs": [
        {
          "internalType": "address",
          "name": "account",
          "type": "address"
        }
      ],
      "name": "balanceOf",
      "outputs": [
        {
          "internalType": "uint256",
          "name": "",
          "type": "uint256"
        }
      ],
      "stateMutability": "view",
      "type": "function"
    },
    {
      "inputs": [
        {
          "internalType": "address",
          "name": "account",
          "type": "address"
        },
        {
          "internalType": "uint256",
          "name": "amount",
          "type": "uint256"
        }
      ],
      "name": "burnFrom",
      "outputs": [],
      "stateMutability": "nonpayable",
      "type": "function"
    },
    {
      "inputs": [
        {
          "internalType": "address",
          "name": "account",
          "type": "address"
        }
      ],
      "name": "calculateFee",
      "outputs": [
        {
          "internalType": "uint256",
          "name": "",
          "type": "uint256"
        }
      ],
      "stateMutability": "view",
      "type": "function"
    },
    {
      "inputs": [],
      "name": "decimals",
      "outputs": [
        {
          "internalType": "uint8",
          "name": "",
          "type": "uint8"
        }
      ],
      "stateMutability": "view",
      "type": "function"
    },
    {
      "inputs": [
        {
          "internalType": "address",
          "name": "spender",
          "type": "address"
        },
        {
          "internalType": "uint256",
          "name": "subtractedValue",
          "type": "uint256"
        }
      ],
      "name": "decreaseAllowance",
      "outputs": [
        {
          "internalType": "bool",
          "name": "",
          "type": "bool"
        }
      ],
      "stateMutability": "nonpayable",
      "type": "function"
    },
    {
      "inputs": [
        {
          "internalType": "address",
          "name": "account",
          "type": "address"
        }
      ],
      "name": "feeLastPaid",
      "outputs": [
        {
          "internalType": "uint256",
          "name": "",
          "type": "uint256"
        }
      ],
      "stateMutability": "view",
      "type": "function"
    },
    {
      "inputs": [],
      "name": "feeRate",
      "outputs": [
        {
          "internalType": "uint256",
          "name": "",
          "type": "uint256"
        }
      ],
      "stateMutability": "view",
      "type": "function"
    },
    {
      "inputs": [
        {
          "internalType": "address",
          "name": "spender",
          "type": "address"
        },
        {
          "internalType": "uint256",
          "name": "addedValue",
          "type": "uint256"
        }
      ],
      "name": "increaseAllowance",
      "outputs": [
        {
          "internalType": "bool",
          "name": "",
          "type": "bool"
        }
      ],
      "stateMutability": "nonpayable",
      "type": "function"
    },
    {
      "inputs": [],
      "name": "lastFeeChange",
      "outputs": [
        {
          "internalType": "uint256",
          "name": "",
          "type": "uint256"
        }
      ],
      "stateMutability": "view",
      "type": "function"
    },
    {
      "inputs": [
        {
          "internalType": "address",
          "name": "destination",
          "type": "address"
        },
        {
          "internalType": "uint256",
          "name": "amount",
          "type": "uint256"
        }
      ],
      "name": "mint",
      "outputs": [],
      "stateMutability": "nonpayable",
      "type": "function"
    },
    {
      "inputs": [],
      "name": "name",
      "outputs": [
        {
          "internalType": "string",
          "name": "",
          "type": "string"
        }
      ],
      "stateMutability": "view",
      "type": "function"
    },
    {
      "inputs": [],
      "name": "owner",
      "outputs": [
        {
          "internalType": "address",
          "name": "",
          "type": "address"
        }
      ],
      "stateMutability": "view",
      "type": "function"
    },
    {
      "inputs": [
        {
          "internalType": "address",
          "name": "account",
          "type": "address"
        }
      ],
      "name": "payFees",
      "outputs": [],
      "stateMutability": "nonpayable",
      "type": "function"
    },
    {
      "inputs": [],
      "name": "renounceOwnership",
      "outputs": [],
      "stateMutability": "nonpayable",
      "type": "function"
    },
    {
      "inputs": [
        {
          "internalType": "address",
          "name": "feeCollector",
          "type": "address"
        }
      ],
      "name": "setFeeCollector",
      "outputs": [],
      "stateMutability": "nonpayable",
      "type": "function"
    },
    {
      "inputs": [
        {
          "internalType": "uint256",
          "name": "newFee_",
          "type": "uint256"
        }
      ],
      "name": "setFeeRate",
      "outputs": [],
      "stateMutability": "nonpayable",
      "type": "function"
    },
    {
      "inputs": [],
      "name": "symbol",
      "outputs": [
        {
          "internalType": "string",
          "name": "",
          "type": "string"
        }
      ],
      "stateMutability": "view",
      "type": "function"
    },
    {
      "inputs": [],
      "name": "totalSupply",
      "outputs": [
        {
          "internalType": "uint256",
          "name": "",
          "type": "uint256"
        }
      ],
      "stateMutability": "view",
      "type": "function"
    },
    {
      "inputs": [
        {
          "internalType": "address",
          "name": "to",
          "type": "address"
        },
        {
          "internalType": "uint256",
          "name": "amount",
          "type": "uint256"
        }
      ],
      "name": "transfer",
      "outputs": [
        {
          "internalType": "bool",
          "name": "",
          "type": "bool"
        }
      ],
      "stateMutability": "nonpayable",
      "type": "function"
    },
    {
      "inputs": [
        {
          "internalType": "address",
          "name": "from",
          "type": "address"
        },
        {
          "internalType": "address",
          "name": "to",
          "type": "address"
        },
        {
          "internalType": "uint256",
          "name": "amount",
          "type": "uint256"
        }
      ],
      "name": "transferFrom",
      "outputs": [
        {
          "internalType": "bool",
          "name": "",
          "type": "bool"
        }
      ],
      "stateMutability": "nonpayable",
      "type": "function"
    },
    {
      "inputs": [
        {
          "internalType": "address",
          "name": "newOwner",
          "type": "address"
        }
      ],
      "name": "transferOwnership",
      "outputs": [],
      "stateMutability": "nonpayable",
      "type": "function"
    }
  ],
  "transactionHash": "0x6f153e5dbf02c6bb5f073e78fc4b8f4db407befe5d53b65354f03a4bfee86c46",
  "args": [
    "DenarioCoin",
    "DC",
    "18",
    "1000000000000000",
    "100000000000000000",
    "0x08F6dc28106ccEBf0e0F47ACb1D1702c7A5EDDd8"
  ],
  "numDeployments": 1,
  "solcInputHash": "1e8170ef0cdcc554de1561704c143a45",
  "bytecode": "0x60c06040523480156200001157600080fd5b5060405162001c5c38038062001c5c8339810160408190526200003491620002ee565b6200003f3362000145565b81831115620000af5760405162461bcd60e51b815260206004820152603260248201527f455243323057697468466565733a2066656520726174652063616e6e6f742062604482015271652067726561746572207468616e2031302560701b606482015260840160405180910390fd5b8551620000c490600590602089019062000195565b508451620000da90600690602088019062000195565b506000805460ff60a01b1916600160a01b60ff8716021790556007839055600880546001600160a01b0319166001600160a01b038316179055426009556200012484600a620003ef565b620001339062278d00620004e7565b60a05250608052506200057292505050565b600080546001600160a01b038381166001600160a01b0319831681178455604051919092169283917f8be0079c531659141344cd1fd0a4f28419497f9722a3daafe3b4186f6b6457e09190a35050565b828054620001a39062000509565b90600052602060002090601f016020900481019282620001c7576000855562000212565b82601f10620001e257805160ff191683800117855562000212565b8280016001018555821562000212579182015b8281111562000212578251825591602001919060010190620001f5565b506200022092915062000224565b5090565b5b8082111562000220576000815560010162000225565b600082601f8301126200024c578081fd5b81516001600160401b03808211156200026957620002696200055c565b604051601f8301601f19908116603f011681019082821181831017156200029457620002946200055c565b81604052838152602092508683858801011115620002b0578485fd5b8491505b83821015620002d35785820183015181830184015290820190620002b4565b83821115620002e457848385830101525b9695505050505050565b60008060008060008060c0878903121562000307578182fd5b86516001600160401b03808211156200031e578384fd5b6200032c8a838b016200023b565b9750602089015191508082111562000342578384fd5b506200035189828a016200023b565b955050604087015160ff8116811462000368578283fd5b6060880151608089015160a08a015192965090945092506001600160a01b038116811462000394578182fd5b809150509295509295509295565b80825b6001808611620003b65750620003e6565b818704821115620003cb57620003cb62000546565b80861615620003d957918102915b9490941c938002620003a5565b94509492505050565b60006200040360001960ff8516846200040a565b9392505050565b6000826200041b5750600162000403565b816200042a5750600062000403565b81600181146200044357600281146200044e5762000482565b600191505062000403565b60ff84111562000462576200046262000546565b6001841b9150848211156200047b576200047b62000546565b5062000403565b5060208310610133831016604e8410600b8410161715620004ba575081810a83811115620004b457620004b462000546565b62000403565b620004c98484846001620003a2565b808604821115620004de57620004de62000546565b02949350505050565b600081600019048311821515161562000504576200050462000546565b500290565b600181811c908216806200051e57607f821691505b602082108114156200054057634e487b7160e01b600052602260045260246000fd5b50919050565b634e487b7160e01b600052601160045260246000fd5b634e487b7160e01b600052604160045260246000fd5b60805160a0516116c46200059860003960006111320152600061057801526116c46000f3fe608060405234801561001057600080fd5b506004361061018d5760003560e01c8063715018a6116100e3578063a457c2d71161008c578063ceee577e11610066578063ceee577e1461032b578063dd62ed3e14610354578063f2fde38b1461038d5761018d565b8063a457c2d7146102f2578063a9059cbb14610305578063b8f9197b146103185761018d565b806395d89b41116100bd57806395d89b41146102ce578063978bbdb9146102d6578063a42dce80146102df5761018d565b8063715018a61461029857806379cc6790146102a05780638da5cb5b146102b35761018d565b80633950935111610145578063465f5eb81161011f578063465f5eb814610269578063695056881461027c57806370a08231146102855761018d565b8063395093511461022e57806340c10f191461024157806345596e2e146102565761018d565b806318160ddd1161017657806318160ddd146101d357806323b872dd146101e5578063313ce567146101f85761018d565b806306fdde0314610192578063095ea7b3146101b0575b600080fd5b61019a6103a0565b6040516101a7919061157e565b60405180910390f35b6101c36101be36600461153d565b610432565b60405190151581526020016101a7565b6004545b6040519081526020016101a7565b6101c36101f3366004611502565b61044a565b61021c60005474010000000000000000000000000000000000000000900460ff1690565b60405160ff90911681526020016101a7565b6101c361023c36600461153d565b610470565b61025461024f36600461153d565b6104af565b005b610254610264366004611566565b61051c565b6101d76102773660046114b6565b610615565b6101d760095481565b6101d76102933660046114b6565b610628565b61025461065b565b6102546102ae36600461153d565b6106c1565b6000546040516001600160a01b0390911681526020016101a7565b61019a6107cf565b6101d760075481565b6102546102ed3660046114b6565b6107de565b6101c361030036600461153d565b6108ee565b6101c361031336600461153d565b6109a3565b6102546103263660046114b6565b6109b1565b6101d76103393660046114b6565b6001600160a01b031660009081526003602052604090205490565b6101d76103623660046114d0565b6001600160a01b03918216600090815260026020908152604080832093909416825291909152205490565b61025461039b3660046114b6565b610a3d565b6060600580546103af9061163d565b80601f01602080910402602001604051908101604052809291908181526020018280546103db9061163d565b80156104285780601f106103fd57610100808354040283529160200191610428565b820191906000526020600020905b81548152906001019060200180831161040b57829003601f168201915b5050505050905090565b600033610440818585610b1f565b5060019392505050565b600033610458858285610c78565b610463858585610d0a565b60019150505b9392505050565b3360008181526002602090815260408083206001600160a01b038716845290915281205490919061044090829086906104aa9087906115ef565b610b1f565b6000546001600160a01b0316331461050e5760405162461bcd60e51b815260206004820181905260248201527f4f776e61626c653a2063616c6c6572206973206e6f7420746865206f776e657260448201526064015b60405180910390fd5b6105188282610f7e565b5050565b6000546001600160a01b031633146105765760405162461bcd60e51b815260206004820181905260248201527f4f776e61626c653a2063616c6c6572206973206e6f7420746865206f776e65726044820152606401610505565b7f000000000000000000000000000000000000000000000000000000000000000081111561060c5760405162461bcd60e51b815260206004820152602e60248201527f455243323057697468466565733a206665652063616e6e6f74206265206d6f7260448201527f65207468616e206d6178206665650000000000000000000000000000000000006064820152608401610505565b42600955600755565b600061062082611069565b90505b919050565b60008061063483610615565b6001600160a01b038416600090815260016020526040902054909150610469908290611626565b6000546001600160a01b031633146106b55760405162461bcd60e51b815260206004820181905260248201527f4f776e61626c653a2063616c6c6572206973206e6f7420746865206f776e65726044820152606401610505565b6106bf600061115e565b565b6000546001600160a01b0316331461071b5760405162461bcd60e51b815260206004820181905260248201527f4f776e61626c653a2063616c6c6572206973206e6f7420746865206f776e65726044820152606401610505565b610726823383610c78565b6000610731836111c6565b6001600160a01b038416600090815260016020526040902054909150610758908290611626565b821115610789576001600160a01b038316600090815260016020908152604080832054600390925282209190915591505b610793838361129d565b6001600160a01b0383166000908152600160205260409020546107ca576001600160a01b0383166000908152600360205260408120555b505050565b6060600680546103af9061163d565b6000546001600160a01b031633146108385760405162461bcd60e51b815260206004820181905260248201527f4f776e61626c653a2063616c6c6572206973206e6f7420746865206f776e65726044820152606401610505565b6001600160a01b0381166108b45760405162461bcd60e51b815260206004820152603060248201527f455243323057697468466565733a20636f6c6c656374696f6e2061646472657360448201527f732063616e6e6f74206265207a65726f000000000000000000000000000000006064820152608401610505565b600880547fffffffffffffffffffffffff0000000000000000000000000000000000000000166001600160a01b0392909216919091179055565b3360008181526002602090815260408083206001600160a01b03871684529091528120549091908381101561098b5760405162461bcd60e51b815260206004820152602560248201527f45524332303a2064656372656173656420616c6c6f77616e63652062656c6f7760448201527f207a65726f0000000000000000000000000000000000000000000000000000006064820152608401610505565b6109988286868403610b1f565b506001949350505050565b600033610440818585610d0a565b60006109bc826111c6565b6001600160a01b0383166000908152600160205260409020549091506109f6576001600160a01b0382166000908152600360205260408120555b816001600160a01b03167f6a41f86b2a18fe00e10a9bd078e790ae82c2627a6f940166bddc2db475194a5f82604051610a3191815260200190565b60405180910390a25050565b6000546001600160a01b03163314610a975760405162461bcd60e51b815260206004820181905260248201527f4f776e61626c653a2063616c6c6572206973206e6f7420746865206f776e65726044820152606401610505565b6001600160a01b038116610b135760405162461bcd60e51b815260206004820152602660248201527f4f776e61626c653a206e6577206f776e657220697320746865207a65726f206160448201527f64647265737300000000000000000000000000000000000000000000000000006064820152608401610505565b610b1c8161115e565b50565b6001600160a01b038316610b9a5760405162461bcd60e51b8152602060048201526024808201527f45524332303a20617070726f76652066726f6d20746865207a65726f2061646460448201527f72657373000000000000000000000000000000000000000000000000000000006064820152608401610505565b6001600160a01b038216610c165760405162461bcd60e51b815260206004820152602260248201527f45524332303a20617070726f766520746f20746865207a65726f20616464726560448201527f73730000000000000000000000000000000000000000000000000000000000006064820152608401610505565b6001600160a01b0383811660008181526002602090815260408083209487168084529482529182902085905590518481527f8c5be1e5ebec7d5bd14f71427d1e84f3dd0314c0f7b2291e5b200ac8c7c3b92591015b60405180910390a3505050565b6001600160a01b038381166000908152600260209081526040808320938616835292905220546000198114610d045781811015610cf75760405162461bcd60e51b815260206004820152601d60248201527f45524332303a20696e73756666696369656e7420616c6c6f77616e63650000006044820152606401610505565b610d048484848403610b1f565b50505050565b6001600160a01b038316610d865760405162461bcd60e51b815260206004820152602560248201527f45524332303a207472616e736665722066726f6d20746865207a65726f20616460448201527f64726573730000000000000000000000000000000000000000000000000000006064820152608401610505565b6001600160a01b038216610e025760405162461bcd60e51b815260206004820152602360248201527f45524332303a207472616e7366657220746f20746865207a65726f206164647260448201527f65737300000000000000000000000000000000000000000000000000000000006064820152608401610505565b6001600160a01b03831660009081526001602052604090205481811015610e915760405162461bcd60e51b815260206004820152602660248201527f45524332303a207472616e7366657220616d6f756e742065786365656473206260448201527f616c616e636500000000000000000000000000000000000000000000000000006064820152608401610505565b6000610e9c856111c6565b905081610ea984836115ef565b10610eb2578192505b610ebb846111c6565b506001600160a01b0385166000908152600160205260409020838303905581831415610efb576001600160a01b0385166000908152600360205260408120555b6001600160a01b03841660009081526001602052604081208054859290610f239084906115ef565b92505081905550836001600160a01b0316856001600160a01b03167fddf252ad1be2c89b69c2b068fc378daa952ba7f163c4a11628f55a4df523b3ef85604051610f6f91815260200190565b60405180910390a35050505050565b6001600160a01b038216610fd45760405162461bcd60e51b815260206004820152601f60248201527f45524332303a206d696e7420746f20746865207a65726f2061646472657373006044820152606401610505565b8060046000828254610fe691906115ef565b90915550506001600160a01b038216600090815260016020526040812080548392906110139084906115ef565b90915550506001600160a01b0382166000818152600360209081526040808320429055518481527fddf252ad1be2c89b69c2b068fc378daa952ba7f163c4a11628f55a4df523b3ef910160405180910390a35050565b6001600160a01b03811660009081526003602052604081205415806110a457506001600160a01b038216600090815260016020526040902054155b156110b157506000610623565b6009546001600160a01b0383166000908152600360205260408120549091106110dc576009546110f6565b6001600160a01b0383166000908152600360205260409020545b905060006111048242611626565b9050611156600754826111179190611607565b6001600160a01b0386166000908152600160205260409020547f000000000000000000000000000000000000000000000000000000000000000061139e565b949350505050565b600080546001600160a01b038381167fffffffffffffffffffffffff0000000000000000000000000000000000000000831681178455604051919092169283917f8be0079c531659141344cd1fd0a4f28419497f9722a3daafe3b4186f6b6457e09190a35050565b6000806111d283611069565b9050801561127c576001600160a01b03831660009081526001602052604081208054839290611202908490611626565b90915550506008546001600160a01b0316600090815260016020526040812080548392906112319084906115ef565b90915550506008546040518281526001600160a01b03918216918516907fddf252ad1be2c89b69c2b068fc378daa952ba7f163c4a11628f55a4df523b3ef9060200160405180910390a35b6001600160a01b039290921660009081526003602052604090204290555090565b6001600160a01b0382166000908152600160205260409020548181101561132c5760405162461bcd60e51b815260206004820152602260248201527f45524332303a206275726e20616d6f756e7420657863656564732062616c616e60448201527f63650000000000000000000000000000000000000000000000000000000000006064820152608401610505565b6001600160a01b038316600090815260016020526040812083830390556004805484929061135b908490611626565b90915550506040518281526000906001600160a01b038516907fddf252ad1be2c89b69c2b068fc378daa952ba7f163c4a11628f55a4df523b3ef90602001610c6b565b6000808060001985870985870292508281108382030391505080600014156113e7578382816113dd57634e487b7160e01b600052601260045260246000fd5b0492505050610469565b8084116114365760405162461bcd60e51b815260206004820152601560248201527f4d6174683a206d756c446976206f766572666c6f7700000000000000000000006044820152606401610505565b60008486880960026001871981018816978890046003810283188082028403028082028403028082028403028082028403028082028403029081029092039091026000889003889004909101858311909403939093029303949094049190911702949350505050565b80356001600160a01b038116811461062357600080fd5b6000602082840312156114c7578081fd5b6104698261149f565b600080604083850312156114e2578081fd5b6114eb8361149f565b91506114f96020840161149f565b90509250929050565b600080600060608486031215611516578081fd5b61151f8461149f565b925061152d6020850161149f565b9150604084013590509250925092565b6000806040838503121561154f578182fd5b6115588361149f565b946020939093013593505050565b600060208284031215611577578081fd5b5035919050565b6000602080835283518082850152825b818110156115aa5785810183015185820160400152820161158e565b818111156115bb5783604083870101525b50601f017fffffffffffffffffffffffffffffffffffffffffffffffffffffffffffffffe016929092016040019392505050565b6000821982111561160257611602611678565b500190565b600081600019048311821515161561162157611621611678565b500290565b60008282101561163857611638611678565b500390565b600181811c9082168061165157607f821691505b6020821081141561167257634e487b7160e01b600052602260045260246000fd5b50919050565b634e487b7160e01b600052601160045260246000fdfea2646970667358221220bffb2c8254fb7ee2ffa16e2657978a045f92ade45d8418be6ea92e080128bae064736f6c63430008030033",
  "devdoc": {
    "kind": "dev",
    "methods": {
      "allowance(address,address)": {
        "details": "See {IERC20-allowance}."
      },
      "approve(address,uint256)": {
        "details": "See {IERC20-approve}. NOTE: If `amount` is the maximum `uint256`, the allowance is not updated on `transferFrom`. This is semantically equivalent to an infinite approval. Requirements: - `spender` cannot be the zero address."
      },
      "balanceOf(address)": {
        "details": "See {IERC20-balanceOf}."
      },
      "burnFrom(address,uint256)": {
        "details": "Destroys `amount` tokens from `account`, deducting from the caller's allowance. See {ERC20-_burn} and {ERC20-allowance}. Requirements: - the caller must have allowance for ``accounts``'s tokens of at least `amount`."
      },
      "constructor": {
        "details": "Sets the values for {name} and {symbol}. All two of these values are immutable: they can only be set once during construction."
      },
      "decimals()": {
        "details": "Returns the decimals places of the token."
      },
      "decreaseAllowance(address,uint256)": {
        "details": "Atomically decreases the allowance granted to `spender` by the caller. This is an alternative to {approve} that can be used as a mitigation for problems described in {IERC20-approve}. Emits an {Approval} event indicating the updated allowance. Requirements: - `spender` cannot be the zero address. - `spender` must have allowance for the caller of at least `subtractedValue`."
      },
      "increaseAllowance(address,uint256)": {
        "details": "Atomically increases the allowance granted to `spender` by the caller. This is an alternative to {approve} that can be used as a mitigation for problems described in {IERC20-approve}. Emits an {Approval} event indicating the updated allowance. Requirements: - `spender` cannot be the zero address."
      },
      "name()": {
        "details": "Returns the name of the token."
      },
      "owner()": {
        "details": "Returns the address of the current owner."
      },
      "renounceOwnership()": {
        "details": "Leaves the contract without owner. It will not be possible to call `onlyOwner` functions anymore. Can only be called by the current owner. NOTE: Renouncing ownership will leave the contract without an owner, thereby removing any functionality that is only available to the owner."
      },
      "symbol()": {
        "details": "Returns the symbol of the token, usually a shorter version of the name."
      },
      "totalSupply()": {
        "details": "See {IERC20-totalSupply}."
      },
      "transfer(address,uint256)": {
        "details": "See {IERC20-transfer}. Requirements: - `to` cannot be the zero address. - the caller must have a balance of at least `amount`."
      },
      "transferFrom(address,address,uint256)": {
        "details": "See {IERC20-transferFrom}. Emits an {Approval} event indicating the updated allowance. This is not required by the EIP. See the note at the beginning of {ERC20}. NOTE: Does not update the allowance if the current allowance is the maximum `uint256`. Requirements: - `from` and `to` cannot be the zero address. - `from` must have a balance of at least `amount`. - the caller must have allowance for ``from``'s tokens of at least `amount`."
      },
      "transferOwnership(address)": {
        "details": "Transfers ownership of the contract to a new account (`newOwner`). Can only be called by the current owner."
      }
    },
    "version": 1
  },
  "userdoc": {
    "kind": "user",
    "methods": {},
    "version": 1
  },
  "storageLayout": {
    "storage": [
      {
        "astId": 8973,
        "contract": "src/ERC20WithFees.sol:ERC20WithFees",
        "label": "_owner",
        "offset": 0,
        "slot": "0",
        "type": "t_address"
      },
      {
        "astId": 8081,
        "contract": "src/ERC20WithFees.sol:ERC20WithFees",
        "label": "_decimals",
        "offset": 20,
        "slot": "0",
        "type": "t_uint8"
      },
      {
        "astId": 8085,
        "contract": "src/ERC20WithFees.sol:ERC20WithFees",
        "label": "_balances",
        "offset": 0,
        "slot": "1",
        "type": "t_mapping(t_address,t_uint256)"
      },
      {
        "astId": 8091,
        "contract": "src/ERC20WithFees.sol:ERC20WithFees",
        "label": "_allowances",
        "offset": 0,
        "slot": "2",
        "type": "t_mapping(t_address,t_mapping(t_address,t_uint256))"
      },
      {
        "astId": 8095,
        "contract": "src/ERC20WithFees.sol:ERC20WithFees",
        "label": "_feeLastPaid",
        "offset": 0,
        "slot": "3",
        "type": "t_mapping(t_address,t_uint256)"
      },
      {
        "astId": 8097,
        "contract": "src/ERC20WithFees.sol:ERC20WithFees",
        "label": "_totalSupply",
        "offset": 0,
        "slot": "4",
        "type": "t_uint256"
      },
      {
        "astId": 8099,
        "contract": "src/ERC20WithFees.sol:ERC20WithFees",
        "label": "_name",
        "offset": 0,
        "slot": "5",
        "type": "t_string_storage"
      },
      {
        "astId": 8101,
        "contract": "src/ERC20WithFees.sol:ERC20WithFees",
        "label": "_symbol",
        "offset": 0,
        "slot": "6",
        "type": "t_string_storage"
      },
      {
        "astId": 8103,
        "contract": "src/ERC20WithFees.sol:ERC20WithFees",
        "label": "feeRate",
        "offset": 0,
        "slot": "7",
        "type": "t_uint256"
      },
      {
        "astId": 8105,
        "contract": "src/ERC20WithFees.sol:ERC20WithFees",
        "label": "_feeCollector",
        "offset": 0,
        "slot": "8",
        "type": "t_address"
      },
      {
        "astId": 8107,
        "contract": "src/ERC20WithFees.sol:ERC20WithFees",
        "label": "lastFeeChange",
        "offset": 0,
        "slot": "9",
        "type": "t_uint256"
      }
    ],
    "types": {
      "t_address": {
        "encoding": "inplace",
        "label": "address",
        "numberOfBytes": "20"
      },
      "t_mapping(t_address,t_mapping(t_address,t_uint256))": {
        "encoding": "mapping",
        "key": "t_address",
        "label": "mapping(address => mapping(address => uint256))",
        "numberOfBytes": "32",
        "value": "t_mapping(t_address,t_uint256)"
      },
      "t_mapping(t_address,t_uint256)": {
        "encoding": "mapping",
        "key": "t_address",
        "label": "mapping(address => uint256)",
        "numberOfBytes": "32",
        "value": "t_uint256"
      },
      "t_string_storage": {
        "encoding": "bytes",
        "label": "string",
        "numberOfBytes": "32"
      },
      "t_uint256": {
        "encoding": "inplace",
        "label": "uint256",
        "numberOfBytes": "32"
      },
      "t_uint8": {
        "encoding": "inplace",
        "label": "uint8",
        "numberOfBytes": "1"
      }
    }
  }
}