{
  "address": "0xcfe8f8b86f5E3f73c6eA2635554898d5377cDFD8",
  "abi": [
    {
      "inputs": [
        {
          "internalType": "string",
          "name": "name_",
          "type": "string"
        },
        {
          "internalType": "string",
          "name": "symbol_",
          "type": "string"
        },
        {
          "internalType": "uint8",
          "name": "decimals_",
          "type": "uint8"
        },
        {
          "internalType": "uint256",
          "name": "feeRate_",
          "type": "uint256"
        },
        {
          "internalType": "uint256",
          "name": "feeGraceperiod_",
          "type": "uint256"
        },
        {
          "internalType": "address",
          "name": "feeCollector_",
          "type": "address"
        }
      ],
      "stateMutability": "nonpayable",
      "type": "constructor"
    },
    {
      "anonymous": false,
      "inputs": [
        {
          "indexed": true,
          "internalType": "address",
          "name": "owner",
          "type": "address"
        },
        {
          "indexed": true,
          "internalType": "address",
          "name": "spender",
          "type": "address"
        },
        {
          "indexed": false,
          "internalType": "uint256",
          "name": "value",
          "type": "uint256"
        }
      ],
      "name": "Approval",
      "type": "event"
    },
    {
      "anonymous": false,
      "inputs": [
        {
          "indexed": true,
          "internalType": "address",
          "name": "from",
          "type": "address"
        },
        {
          "indexed": false,
          "internalType": "uint256",
          "name": "value",
          "type": "uint256"
        }
      ],
      "name": "FeeCollected",
      "type": "event"
    },
    {
      "anonymous": false,
      "inputs": [
        {
          "indexed": true,
          "internalType": "address",
          "name": "newCollector",
          "type": "address"
        }
      ],
      "name": "FeeCollectorChanged",
      "type": "event"
    },
    {
      "anonymous": false,
      "inputs": [
        {
          "indexed": false,
          "internalType": "address",
          "name": "oldOwner",
          "type": "address"
        },
        {
          "indexed": false,
          "internalType": "address",
          "name": "newOwner",
          "type": "address"
        }
      ],
      "name": "OwnerChanged",
      "type": "event"
    },
    {
      "anonymous": false,
      "inputs": [
        {
          "indexed": false,
          "internalType": "address",
          "name": "newOwner",
          "type": "address"
        }
      ],
      "name": "OwnerNominated",
      "type": "event"
    },
    {
      "anonymous": false,
      "inputs": [
        {
          "indexed": true,
          "internalType": "address",
          "name": "from",
          "type": "address"
        },
        {
          "indexed": true,
          "internalType": "address",
          "name": "to",
          "type": "address"
        },
        {
          "indexed": false,
          "internalType": "uint256",
          "name": "value",
          "type": "uint256"
        }
      ],
      "name": "Transfer",
      "type": "event"
    },
    {
      "inputs": [],
      "name": "acceptOwnership",
      "outputs": [],
      "stateMutability": "nonpayable",
      "type": "function"
    },
    {
      "inputs": [
        {
          "internalType": "address",
          "name": "owner",
          "type": "address"
        },
        {
          "internalType": "address",
          "name": "spender",
          "type": "address"
        }
      ],
      "name": "allowance",
      "outputs": [
        {
          "internalType": "uint256",
          "name": "",
          "type": "uint256"
        }
      ],
      "stateMutability": "view",
      "type": "function"
    },
    {
      "inputs": [
        {
          "internalType": "address",
          "name": "spender",
          "type": "address"
        },
        {
          "internalType": "uint256",
          "name": "amount",
          "type": "uint256"
        }
      ],
      "name": "approve",
      "outputs": [
        {
          "internalType": "bool",
          "name": "",
          "type": "bool"
        }
      ],
      "stateMutability": "nonpayable",
      "type": "function"
    },
    {
      "inputs": [
        {
          "internalType": "address",
          "name": "account",
          "type": "address"
        }
      ],
      "name": "balanceOf",
      "outputs": [
        {
          "internalType": "uint256",
          "name": "",
          "type": "uint256"
        }
      ],
      "stateMutability": "view",
      "type": "function"
    },
    {
      "inputs": [
        {
          "internalType": "uint256",
          "name": "amount",
          "type": "uint256"
        }
      ],
      "name": "burn",
      "outputs": [],
      "stateMutability": "nonpayable",
      "type": "function"
    },
    {
      "inputs": [
        {
          "internalType": "address",
          "name": "account",
          "type": "address"
        }
      ],
      "name": "calculateFee",
      "outputs": [
        {
          "internalType": "uint256",
          "name": "",
          "type": "uint256"
        }
      ],
      "stateMutability": "view",
      "type": "function"
    },
    {
      "inputs": [
        {
          "internalType": "address",
          "name": "account",
          "type": "address"
        }
      ],
      "name": "collectFees",
      "outputs": [],
      "stateMutability": "nonpayable",
      "type": "function"
    },
    {
      "inputs": [],
      "name": "decimals",
      "outputs": [
        {
          "internalType": "uint8",
          "name": "",
          "type": "uint8"
        }
      ],
      "stateMutability": "view",
      "type": "function"
    },
    {
      "inputs": [
        {
          "internalType": "address",
          "name": "spender",
          "type": "address"
        },
        {
          "internalType": "uint256",
          "name": "subtractedValue",
          "type": "uint256"
        }
      ],
      "name": "decreaseAllowance",
      "outputs": [
        {
          "internalType": "bool",
          "name": "",
          "type": "bool"
        }
      ],
      "stateMutability": "nonpayable",
      "type": "function"
    },
    {
      "inputs": [],
      "name": "feeCollector",
      "outputs": [
        {
          "internalType": "address",
          "name": "",
          "type": "address"
        }
      ],
      "stateMutability": "view",
      "type": "function"
    },
    {
      "inputs": [],
      "name": "feeGracePeriod",
      "outputs": [
        {
          "internalType": "uint256",
          "name": "",
          "type": "uint256"
        }
      ],
      "stateMutability": "view",
      "type": "function"
    },
    {
      "inputs": [
        {
          "internalType": "address",
          "name": "account",
          "type": "address"
        }
      ],
      "name": "feeLastPaid",
      "outputs": [
        {
          "internalType": "uint256",
          "name": "",
          "type": "uint256"
        }
      ],
      "stateMutability": "view",
      "type": "function"
    },
    {
      "inputs": [],
      "name": "feeRate",
      "outputs": [
        {
          "internalType": "uint256",
          "name": "",
          "type": "uint256"
        }
      ],
      "stateMutability": "view",
      "type": "function"
    },
    {
      "inputs": [
        {
          "internalType": "address",
          "name": "spender",
          "type": "address"
        },
        {
          "internalType": "uint256",
          "name": "addedValue",
          "type": "uint256"
        }
      ],
      "name": "increaseAllowance",
      "outputs": [
        {
          "internalType": "bool",
          "name": "",
          "type": "bool"
        }
      ],
      "stateMutability": "nonpayable",
      "type": "function"
    },
    {
      "inputs": [
        {
          "internalType": "address",
          "name": "destination",
          "type": "address"
        },
        {
          "internalType": "uint256",
          "name": "amount",
          "type": "uint256"
        }
      ],
      "name": "mint",
      "outputs": [],
      "stateMutability": "nonpayable",
      "type": "function"
    },
    {
      "inputs": [],
      "name": "name",
      "outputs": [
        {
          "internalType": "string",
          "name": "",
          "type": "string"
        }
      ],
      "stateMutability": "view",
      "type": "function"
    },
    {
      "inputs": [
        {
          "internalType": "address",
          "name": "_owner",
          "type": "address"
        }
      ],
      "name": "nominateNewOwner",
      "outputs": [],
      "stateMutability": "nonpayable",
      "type": "function"
    },
    {
      "inputs": [],
      "name": "nominatedOwner",
      "outputs": [
        {
          "internalType": "address",
          "name": "",
          "type": "address"
        }
      ],
      "stateMutability": "view",
      "type": "function"
    },
    {
      "inputs": [],
      "name": "owner",
      "outputs": [
        {
          "internalType": "address",
          "name": "",
          "type": "address"
        }
      ],
      "stateMutability": "view",
      "type": "function"
    },
    {
      "inputs": [
        {
          "internalType": "address",
          "name": "feeCollector_",
          "type": "address"
        }
      ],
      "name": "setFeeCollector",
      "outputs": [],
      "stateMutability": "nonpayable",
      "type": "function"
    },
    {
      "inputs": [],
      "name": "symbol",
      "outputs": [
        {
          "internalType": "string",
          "name": "",
          "type": "string"
        }
      ],
      "stateMutability": "view",
      "type": "function"
    },
    {
      "inputs": [],
      "name": "totalSupply",
      "outputs": [
        {
          "internalType": "uint256",
          "name": "",
          "type": "uint256"
        }
      ],
      "stateMutability": "view",
      "type": "function"
    },
    {
      "inputs": [
        {
          "internalType": "address",
          "name": "to",
          "type": "address"
        },
        {
          "internalType": "uint256",
          "name": "amount",
          "type": "uint256"
        }
      ],
      "name": "transfer",
      "outputs": [
        {
          "internalType": "bool",
          "name": "",
          "type": "bool"
        }
      ],
      "stateMutability": "nonpayable",
      "type": "function"
    },
    {
      "inputs": [
        {
          "internalType": "address",
          "name": "from",
          "type": "address"
        },
        {
          "internalType": "address",
          "name": "to",
          "type": "address"
        },
        {
          "internalType": "uint256",
          "name": "amount",
          "type": "uint256"
        }
      ],
      "name": "transferFrom",
      "outputs": [
        {
          "internalType": "bool",
          "name": "",
          "type": "bool"
        }
      ],
      "stateMutability": "nonpayable",
      "type": "function"
    }
  ],
  "transactionHash": "0x9ca8566179f06d5ded7ab1d4f213abda21832ef2c16e55281fcce827c2f91d03",
  "args": [
    "DenarioCoin",
    "DC",
    "18",
    "1",
    "36000",
    "0x08F6dc28106ccEBf0e0F47ACb1D1702c7A5EDDd8"
  ],
  "numDeployments": 2,
  "solcInputHash": "82f3f340e3ff3f73748b6a92e63a9160",
  "bytecode": "0x60806040523480156200001157600080fd5b5060405162001937380380620019378339810160408190526200003491620002b9565b33818180620000895760405162461bcd60e51b815260206004820152601960248201527f4f776e657220616464726573732063616e6e6f74206265203000000000000000604482015260640160405180910390fd5b600080546001600160a01b0319166001600160a01b03831690811782556040805192835260208301919091527fb532073b38c83145e3e5135377a08bf9aab55bc0fd7c1179cd4fb995d2a5159c910160405180910390a150600280546001600160a01b0319166001600160a01b03929092169190911790555085516200011790600790602089019062000160565b5084516200012d90600890602088019062000160565b50506002805460ff909416600160a01b0260ff60a01b1990941693909317909255600a9190915560095550620003c09050565b8280546200016e906200036d565b90600052602060002090601f016020900481019282620001925760008555620001dd565b82601f10620001ad57805160ff1916838001178555620001dd565b82800160010185558215620001dd579182015b82811115620001dd578251825591602001919060010190620001c0565b50620001eb929150620001ef565b5090565b5b80821115620001eb5760008155600101620001f0565b600082601f83011262000217578081fd5b81516001600160401b0380821115620002345762000234620003aa565b604051601f8301601f19908116603f011681019082821181831017156200025f576200025f620003aa565b816040528381526020925086838588010111156200027b578485fd5b8491505b838210156200029e57858201830151818301840152908201906200027f565b83821115620002af57848385830101525b9695505050505050565b60008060008060008060c08789031215620002d2578182fd5b86516001600160401b0380821115620002e9578384fd5b620002f78a838b0162000206565b975060208901519150808211156200030d578384fd5b506200031c89828a0162000206565b955050604087015160ff8116811462000333578283fd5b6060880151608089015160a08a015192965090945092506001600160a01b03811681146200035f578182fd5b809150509295509295509295565b600181811c908216806200038257607f821691505b60208210811415620003a457634e487b7160e01b600052602260045260246000fd5b50919050565b634e487b7160e01b600052604160045260246000fd5b61156780620003d06000396000f3fe608060405234801561001057600080fd5b50600436106101985760003560e01c806379ba5097116100e3578063a480ca791161008c578063c415b95c11610066578063c415b95c14610359578063ceee577e1461036a578063dd62ed3e1461039357610198565b8063a480ca791461032a578063a9059cbb1461033d578063c1c1063c1461035057610198565b8063978bbdb9116100bd578063978bbdb9146102fb578063a42dce8014610304578063a457c2d71461031757610198565b806379ba5097146102d85780638da5cb5b146102e057806395d89b41146102f357610198565b80633950935111610145578063465f5eb81161011f578063465f5eb81461028757806353a47bb71461029a57806370a08231146102c557610198565b8063395093511461024e57806340c10f191461026157806342966c681461027457610198565b806318160ddd1161017657806318160ddd146101f357806323b872dd14610205578063313ce5671461021857610198565b806306fdde031461019d578063095ea7b3146101bb5780631627540c146101de575b600080fd5b6101a56103cc565b6040516101b2919061143d565b60405180910390f35b6101ce6101c93660046113b1565b61045e565b60405190151581526020016101b2565b6101f16101ec36600461132a565b610476565b005b6006545b6040519081526020016101b2565b6101ce610213366004611376565b6104df565b61023c60025474010000000000000000000000000000000000000000900460ff1690565b60405160ff90911681526020016101b2565b6101ce61025c3660046113b1565b610503565b6101f161026f3660046113b1565b610542565b6101f16102823660046113da565b610558565b6101f761029536600461132a565b610602565b6001546102ad906001600160a01b031681565b6040516001600160a01b0390911681526020016101b2565b6101f76102d336600461132a565b6106a9565b6101f16106e3565b6000546102ad906001600160a01b031681565b6101a56107e7565b6101f760095481565b6101f161031236600461132a565b6107f6565b6101ce6103253660046113b1565b610855565b6101f161033836600461132a565b6108ff565b6101ce61034b3660046113b1565b610a93565b6101f7600a5481565b6002546001600160a01b03166102ad565b6101f761037836600461132a565b6001600160a01b031660009081526005602052604090205490565b6101f76103a1366004611344565b6001600160a01b03918216600090815260046020908152604080832093909416825291909152205490565b6060600780546103db906114e0565b80601f0160208091040260200160405190810160405280929190818152602001828054610407906114e0565b80156104545780601f1061042957610100808354040283529160200191610454565b820191906000526020600020905b81548152906001019060200180831161043757829003601f168201915b5050505050905090565b60003361046c818585610aa1565b5060019392505050565b61047e610bfa565b6001805473ffffffffffffffffffffffffffffffffffffffff19166001600160a01b0383169081179091556040519081527f906a1c6bd7e3091ea86693dd029a831c19049ce77f1dce2ce0bab1cacbabce229060200160405180910390a150565b6000336104ed858285610c7c565b6104f8858585610d0e565b506001949350505050565b3360008181526004602090815260408083206001600160a01b038716845290915281205490919061046c908290869061053d908790611472565b610aa1565b61054a610bfa565b6105548282610f82565b5050565b3360006105648261106d565b6001600160a01b03831660009081526003602052604090205490915061058b9082906114c9565b8311156105bc576001600160a01b038216600090815260036020908152604080832054600590925282209190915592505b6105c68284611183565b6001600160a01b0382166000908152600360205260409020546105fd576001600160a01b0382166000908152600560205260408120555b505050565b6001600160a01b038116600090815260056020526040812054158061063d57506001600160a01b038216600090815260036020526040902054155b1561064a575060006106a4565b6001600160a01b0382166000908152600360209081526040808320546009546005909352922054630f73140092919061068390426114c9565b61068d91906114aa565b61069791906114aa565b6106a1919061148a565b90505b919050565b6000806106b583610602565b6001600160a01b0384166000908152600360205260409020549091506106dc9082906114c9565b9392505050565b6001546001600160a01b031633146107685760405162461bcd60e51b815260206004820152603560248201527f596f75206d757374206265206e6f6d696e61746564206265666f726520796f7560448201527f2063616e20616363657074206f776e657273686970000000000000000000000060648201526084015b60405180910390fd5b600054600154604080516001600160a01b0393841681529290911660208301527fb532073b38c83145e3e5135377a08bf9aab55bc0fd7c1179cd4fb995d2a5159c910160405180910390a1600180546000805473ffffffffffffffffffffffffffffffffffffffff199081166001600160a01b03841617909155169055565b6060600880546103db906114e0565b6107fe610bfa565b6002805473ffffffffffffffffffffffffffffffffffffffff19166001600160a01b0383169081179091556040517f9c1996a14d26c3ecd833c10222d012447ef07b09b15000f3a34318ff039c0bdc90600090a250565b3360008181526004602090815260408083206001600160a01b0387168452909152812054909190838110156108f25760405162461bcd60e51b815260206004820152602560248201527f45524332303a2064656372656173656420616c6c6f77616e63652062656c6f7760448201527f207a65726f000000000000000000000000000000000000000000000000000000606482015260840161075f565b6104f88286868403610aa1565b6001600160a01b0381166000908152600360205260409020546109645760405162461bcd60e51b815260206004820152601560248201527f4e6f2062616c616e636520746f20636f6c6c6563740000000000000000000000604482015260640161075f565b6001600160a01b038116600090815260056020526040902054600a5461098a82426114c9565b1180610994575080155b610a065760405162461bcd60e51b815260206004820152603c60248201527f477261636520706572696f6420686173206e6f7420656e6465642e2043616e6e60448201527f6f7420666f7263652066656520636f6c6c656374696f6e207965742e00000000606482015260840161075f565b6000610a118361106d565b6001600160a01b038416600090815260036020526040902054909150610a4b576001600160a01b0383166000908152600560205260408120555b826001600160a01b03167f06c5efeff5c320943d265dc4e5f1af95ad523555ce0c1957e367dda5514572df82604051610a8691815260200190565b60405180910390a2505050565b60003361046c818585610d0e565b6001600160a01b038316610b1c5760405162461bcd60e51b8152602060048201526024808201527f45524332303a20617070726f76652066726f6d20746865207a65726f2061646460448201527f7265737300000000000000000000000000000000000000000000000000000000606482015260840161075f565b6001600160a01b038216610b985760405162461bcd60e51b815260206004820152602260248201527f45524332303a20617070726f766520746f20746865207a65726f20616464726560448201527f7373000000000000000000000000000000000000000000000000000000000000606482015260840161075f565b6001600160a01b0383811660008181526004602090815260408083209487168084529482529182902085905590518481527f8c5be1e5ebec7d5bd14f71427d1e84f3dd0314c0f7b2291e5b200ac8c7c3b92591015b60405180910390a3505050565b6000546001600160a01b03163314610c7a5760405162461bcd60e51b815260206004820152602f60248201527f4f6e6c792074686520636f6e7472616374206f776e6572206d6179207065726660448201527f6f726d207468697320616374696f6e0000000000000000000000000000000000606482015260840161075f565b565b6001600160a01b038381166000908152600460209081526040808320938616835292905220546000198114610d085781811015610cfb5760405162461bcd60e51b815260206004820152601d60248201527f45524332303a20696e73756666696369656e7420616c6c6f77616e6365000000604482015260640161075f565b610d088484848403610aa1565b50505050565b6001600160a01b038316610d8a5760405162461bcd60e51b815260206004820152602560248201527f45524332303a207472616e736665722066726f6d20746865207a65726f20616460448201527f6472657373000000000000000000000000000000000000000000000000000000606482015260840161075f565b6001600160a01b038216610e065760405162461bcd60e51b815260206004820152602360248201527f45524332303a207472616e7366657220746f20746865207a65726f206164647260448201527f6573730000000000000000000000000000000000000000000000000000000000606482015260840161075f565b6001600160a01b03831660009081526003602052604090205481811015610e955760405162461bcd60e51b815260206004820152602660248201527f45524332303a207472616e7366657220616d6f756e742065786365656473206260448201527f616c616e63650000000000000000000000000000000000000000000000000000606482015260840161075f565b6000610ea08561106d565b905081610ead8483611472565b10610eb6578192505b610ebf8461106d565b506001600160a01b0385166000908152600360205260409020838303905581831415610eff576001600160a01b0385166000908152600560205260408120555b6001600160a01b03841660009081526003602052604081208054859290610f27908490611472565b92505081905550836001600160a01b0316856001600160a01b03167fddf252ad1be2c89b69c2b068fc378daa952ba7f163c4a11628f55a4df523b3ef85604051610f7391815260200190565b60405180910390a35050505050565b6001600160a01b038216610fd85760405162461bcd60e51b815260206004820152601f60248201527f45524332303a206d696e7420746f20746865207a65726f206164647265737300604482015260640161075f565b8060066000828254610fea9190611472565b90915550506001600160a01b03821660009081526003602052604081208054839290611017908490611472565b90915550506001600160a01b0382166000818152600560209081526040808320429055518481527fddf252ad1be2c89b69c2b068fc378daa952ba7f163c4a11628f55a4df523b3ef910160405180910390a35050565b60008061107983610602565b90506110ba6040518060400160405280600e81526020017f636f6e7472616374204665653a2000000000000000000000000000000000000081525082611284565b8015611162576001600160a01b038316600090815260036020526040812080548392906110e89084906114c9565b90915550506002546001600160a01b031660009081526003602052604081208054839290611117908490611472565b90915550506002546040518281526001600160a01b03918216918516907fddf252ad1be2c89b69c2b068fc378daa952ba7f163c4a11628f55a4df523b3ef9060200160405180910390a35b6001600160a01b039290921660009081526005602052604090204290555090565b6001600160a01b038216600090815260036020526040902054818110156112125760405162461bcd60e51b815260206004820152602260248201527f45524332303a206275726e20616d6f756e7420657863656564732062616c616e60448201527f6365000000000000000000000000000000000000000000000000000000000000606482015260840161075f565b6001600160a01b03831660009081526003602052604081208383039055600680548492906112419084906114c9565b90915550506040518281526000906001600160a01b038516907fddf252ad1be2c89b69c2b068fc378daa952ba7f163c4a11628f55a4df523b3ef90602001610bed565b610554828260405160240161129a929190611450565b60408051601f198184030181529190526020810180517bffffffffffffffffffffffffffffffffffffffffffffffffffffffff167fb60e72cc0000000000000000000000000000000000000000000000000000000017905280516a636f6e736f6c652e6c6f67602083016000808483855afa5050505050565b80356001600160a01b03811681146106a457600080fd5b60006020828403121561133b578081fd5b6106dc82611313565b60008060408385031215611356578081fd5b61135f83611313565b915061136d60208401611313565b90509250929050565b60008060006060848603121561138a578081fd5b61139384611313565b92506113a160208501611313565b9150604084013590509250925092565b600080604083850312156113c3578182fd5b6113cc83611313565b946020939093013593505050565b6000602082840312156113eb578081fd5b5035919050565b60008151808452815b81811015611417576020818501810151868301820152016113fb565b818111156114285782602083870101525b50601f01601f19169290920160200192915050565b6000602082526106dc60208301846113f2565b60006040825261146360408301856113f2565b90508260208301529392505050565b600082198211156114855761148561151b565b500190565b6000826114a557634e487b7160e01b81526012600452602481fd5b500490565b60008160001904831182151516156114c4576114c461151b565b500290565b6000828210156114db576114db61151b565b500390565b600181811c908216806114f457607f821691505b6020821081141561151557634e487b7160e01b600052602260045260246000fd5b50919050565b634e487b7160e01b600052601160045260246000fdfea264697066735822122033a1eb8aa2e5e5c303181d652e615878dcfc095fafad0cfd5d14fa860b6f039464736f6c63430008030033",
  "devdoc": {
    "kind": "dev",
    "methods": {
      "allowance(address,address)": {
        "details": "See {IERC20-allowance}."
      },
      "approve(address,uint256)": {
        "details": "See {IERC20-approve}. NOTE: If `amount` is the maximum `uint256`, the allowance is not updated on `transferFrom`. This is semantically equivalent to an infinite approval. Requirements: - `spender` cannot be the zero address."
      },
      "balanceOf(address)": {
        "details": "See {IERC20-balanceOf}."
      },
      "constructor": {
        "details": "Sets the values for {name} and {symbol}. All two of these values are immutable: they can only be set once during construction."
      },
      "decimals()": {
        "details": "Returns the decimals places of the token."
      },
      "decreaseAllowance(address,uint256)": {
        "details": "Atomically decreases the allowance granted to `spender` by the caller. This is an alternative to {approve} that can be used as a mitigation for problems described in {IERC20-approve}. Emits an {Approval} event indicating the updated allowance. Requirements: - `spender` cannot be the zero address. - `spender` must have allowance for the caller of at least `subtractedValue`."
      },
      "increaseAllowance(address,uint256)": {
        "details": "Atomically increases the allowance granted to `spender` by the caller. This is an alternative to {approve} that can be used as a mitigation for problems described in {IERC20-approve}. Emits an {Approval} event indicating the updated allowance. Requirements: - `spender` cannot be the zero address."
      },
      "name()": {
        "details": "Returns the name of the token."
      },
      "symbol()": {
        "details": "Returns the symbol of the token, usually a shorter version of the name."
      },
      "totalSupply()": {
        "details": "See {IERC20-totalSupply}."
      },
      "transfer(address,uint256)": {
        "details": "See {IERC20-transfer}. Requirements: - `to` cannot be the zero address. - the caller must have a balance of at least `amount`."
      },
      "transferFrom(address,address,uint256)": {
        "details": "See {IERC20-transferFrom}. Emits an {Approval} event indicating the updated allowance. This is not required by the EIP. See the note at the beginning of {ERC20}. NOTE: Does not update the allowance if the current allowance is the maximum `uint256`. Requirements: - `from` and `to` cannot be the zero address. - `from` must have a balance of at least `amount`. - the caller must have allowance for ``from``'s tokens of at least `amount`."
      }
    },
    "stateVariables": {
      "feeRate": {
        "details": "fee rate expresses the percentage of the fees owed / month."
      }
    },
    "version": 1
  },
  "userdoc": {
    "kind": "user",
    "methods": {},
    "version": 1
  },
  "storageLayout": {
    "storage": [
      {
        "astId": 8975,
        "contract": "src/ERC20WithFees.sol:ERC20WithFees",
        "label": "owner",
        "offset": 0,
        "slot": "0",
        "type": "t_address"
      },
      {
        "astId": 8977,
        "contract": "src/ERC20WithFees.sol:ERC20WithFees",
        "label": "nominatedOwner",
        "offset": 0,
        "slot": "1",
        "type": "t_address"
      },
      {
        "astId": 8070,
        "contract": "src/ERC20WithFees.sol:ERC20WithFees",
        "label": "_feeCollector",
        "offset": 0,
        "slot": "2",
        "type": "t_address"
      },
      {
        "astId": 8144,
        "contract": "src/ERC20WithFees.sol:ERC20WithFees",
        "label": "_decimals",
        "offset": 20,
        "slot": "2",
        "type": "t_uint8"
      },
      {
        "astId": 8148,
        "contract": "src/ERC20WithFees.sol:ERC20WithFees",
        "label": "_balances",
        "offset": 0,
        "slot": "3",
        "type": "t_mapping(t_address,t_uint256)"
      },
      {
        "astId": 8154,
        "contract": "src/ERC20WithFees.sol:ERC20WithFees",
        "label": "_allowances",
        "offset": 0,
        "slot": "4",
        "type": "t_mapping(t_address,t_mapping(t_address,t_uint256))"
      },
      {
        "astId": 8158,
        "contract": "src/ERC20WithFees.sol:ERC20WithFees",
        "label": "_feeLastPaid",
        "offset": 0,
        "slot": "5",
        "type": "t_mapping(t_address,t_uint256)"
      },
      {
        "astId": 8160,
        "contract": "src/ERC20WithFees.sol:ERC20WithFees",
        "label": "_totalSupply",
        "offset": 0,
        "slot": "6",
        "type": "t_uint256"
      },
      {
        "astId": 8162,
        "contract": "src/ERC20WithFees.sol:ERC20WithFees",
        "label": "_name",
        "offset": 0,
        "slot": "7",
        "type": "t_string_storage"
      },
      {
        "astId": 8164,
        "contract": "src/ERC20WithFees.sol:ERC20WithFees",
        "label": "_symbol",
        "offset": 0,
        "slot": "8",
        "type": "t_string_storage"
      },
      {
        "astId": 8167,
        "contract": "src/ERC20WithFees.sol:ERC20WithFees",
        "label": "feeRate",
        "offset": 0,
        "slot": "9",
        "type": "t_uint256"
      },
      {
        "astId": 8169,
        "contract": "src/ERC20WithFees.sol:ERC20WithFees",
        "label": "feeGracePeriod",
        "offset": 0,
        "slot": "10",
        "type": "t_uint256"
      }
    ],
    "types": {
      "t_address": {
        "encoding": "inplace",
        "label": "address",
        "numberOfBytes": "20"
      },
      "t_mapping(t_address,t_mapping(t_address,t_uint256))": {
        "encoding": "mapping",
        "key": "t_address",
        "label": "mapping(address => mapping(address => uint256))",
        "numberOfBytes": "32",
        "value": "t_mapping(t_address,t_uint256)"
      },
      "t_mapping(t_address,t_uint256)": {
        "encoding": "mapping",
        "key": "t_address",
        "label": "mapping(address => uint256)",
        "numberOfBytes": "32",
        "value": "t_uint256"
      },
      "t_string_storage": {
        "encoding": "bytes",
        "label": "string",
        "numberOfBytes": "32"
      },
      "t_uint256": {
        "encoding": "inplace",
        "label": "uint256",
        "numberOfBytes": "32"
      },
      "t_uint8": {
        "encoding": "inplace",
        "label": "uint8",
        "numberOfBytes": "1"
      }
    }
  }
}